:100000000C94A70C0C94C40C0C94C40C0C94C40C4D
:100010000C94C40C0C94C40C0C94C40C0C94C40C20
:100020000C94C40C0C94C40C0C94C40C0C94E812E6
:100030000C94C40C0C94C40C0C94F6130C94C40CC7
:100040000C94C40C0C94C40C0C94C40C0C94C40CF0
:100050000C94C40C0C9434130C94C40C0C94C40C69
:100060000C94C40C0C94C40C0C94C40C0C94C40CD0
:100070000C94C40C0C94C40C0C94C40C0C94C40CC0
:100080000C94C40C0C94C40C0C94C40C0C94C40CB0
:100090000C94C40C0C94C40C0C94C40C0C94C40CA0
:1000A0000C94C40C0C94C40C0C94C40C0C94C40C90
:1000B0000C94C40C27162816281628162816251660
:1000C0002816281628162816281628162816281640
:1000D0002816281628162816281628162316281635
:1000E0002816281628162816281628162816281620
:1000F0002816281628162816281628162816281610
:100100001B16281628162816281628161F16281615
:1001100028162816281628162816281621162816F6
:1001200028162816281628162816281628162816DF
:1001300028162816281628162816281628162816CF
:100140001916281628162816281628161D16000017
:10015000000000000000000000000000000000009F
:10016000000000000000000000000000000000008F
:10017000000000000000000000000000000000007F
:1001800000000000000080038003800380038003E0
:100190008003800380038003800380038003800347
:1001A0008003000000008003800380030000000043
:1001B0000000000000000000380E380E380E380E27
:1001C000380E1004100400000000000000000000C1
:1001D000000000000000000000000000000000001F
:1001E000000000000000000000000000000080315E
:1001F0008031C018C018C018C018FC7FFC7F600C8C
:1002000060063006FE3FFE3F18031803180318036C
:100210008C018C01000000000000000000000003C1
:100220000003C01FF03F70233803380338037803FE
:10023000F003E0038007001F001F003B003B003B72
:10024000003B181BF81FE00F000300030000000034
:100250000000000000003CC06660C330C318C31833
:10026000C30CC30666033C038001C03CC06660C388
:1002700030C318C318C30CC30666033C000000005B
:1002800000000000000000000000E003F007380E4E
:10029000380E380E38067007F001F800FCE0CEE1A9
:1002A000C7E387630767077E0F3E1E3CFC7FF0F3C2
:1002B000000000000000000000000000C001C001BC
:1002C000C001C001C00180008000000000000000EB
:1002D000000000000000000000000000000000001E
:1002E000000000000000000000000000000000000E
:1002F0000018001E000F8003C001E000E000E000D5
:10030000700070007000700070007000700070006D
:10031000E000E000E000C0018003000F001E0018B4
:10032000000000000C003C007800E000C0018003E9
:10033000800380030007000700070007000700078D
:1003400000070007800380038003C001E0007800FD
:100350003C000C00000000000000800380038003CC
:10036000981B7C3E300C4002E007700E381C2004C5
:10037000000000000000000000000000000000007D
:10038000000000000000000000000000000000006D
:100390000000000000000000800180018001800159
:1003A00080018001FE7FFE7F80018001800180014D
:1003B000800180010000000000000000000000003B
:1003C000000000000000000000000000000000002D
:1003D000000000000000000000000000000000001D
:1003E000C003C003C003C003000380038001C0003A
:1003F00000000000000000000000000000000000FD
:1004000000000000000000000000F81FF81F0000BE
:1004100000000000000000000000000000000000DC
:1004200000000000000000000000000000000000CC
:1004300000000000000000000000000000000000BC
:100440000000000000000000C003C003C003C003A0
:10045000000000000000000000000000006000300C
:10046000003000180018000C000C00060006000305
:10047000000380018001C000C00060006000300007
:100480003000180018000C000C00060000000000EE
:100490000000E003F007380E1C1C1C1C0E380E3840
:1004A0000E380E380E380E380E380E380E381C1C2A
:1004B0001C1C380EF007E0030000000000000000E4
:1004C0000000000000000003E003FC038C03800335
:1004D0008003800380038003800380038003800304
:1004E0008003800380038003FC7FFC7F000000000A
:1004F00000000000000000000000F003FC070C0EEC
:10050000001C001C001C001C000E000E00078003D5
:10051000C001E0007000300038001C00FC1FFC1F10
:100520000000000000000000000000000000F003D8
:10053000F80F081E001C001C001C000C0006E00345
:10054000E007000F001E001C001C001C001E080F0E
:10055000F807F803000000000000000000000000A1
:100560000000000E000F800F800FC00EE00E600E26
:10057000300E180E180E0C0E060EFE7FFE7F000EBB
:10058000000E000E000E000E000000000000000033
:10059000000000000000F03FF03FF03F300030006E
:1005A000300030003000F003F00F001E003C003837
:1005B00000380038003C101EF00FF003000000006F
:1005C00000000000000000000000801FE03FF0205D
:1005D0007000380038001C009C0FDC1F7C3C3C780D
:1005E0001C701C701C70387038387038F01FC007D1
:1005F0000000000000000000000000000000F83FC4
:10060000F83FF83F00180018000C000C000600022C
:10061000000380018001C000C00060006000700025
:10062000300030000000000000000000000000006A
:100630000000C007F00F781E381C381C381C780CDE
:10064000F00FE003F00F381F181E1C3C1C381C383C
:100650001C38381CF00FE00700000000000000000C
:10066000000000000000C007F01F381C38381C389C
:100670001C701C701C703C78787CF077E073007004
:1006800000380038001C081EF80FF00300000000BE
:10069000000000000000000000000000000000005A
:1006A00000000000C003C003C003C003000000003E
:1006B0000000000000000000C003C003C003C0032E
:1006C000000000000000000000000000000000002A
:1006D0000000000000000000C003C003C003C0030E
:1006E000000000000000000000000000C003C00384
:1006F000C003C003000380038001C00000000000AD
:100700000000000000000000000000000040007039
:10071000003C000FC003F0003C003C00F000C003B0
:10072000000F003C007000400000000000000000CE
:1007300000000000000000000000000000000000B9
:10074000000000000000FE7FFE7F000000000000AF
:10075000FE7FFE7F0000000000000000000000009F
:100760000000000000000000000000000000000089
:100770000000000002000E003C00F000C003000F6B
:10078000003C003C000FC003F0003C000E000200E3
:100790000000000000000000000000000000F8075A
:1007A000FC1F0C3C0C3800380038001C001E000FE9
:1007B00080078003C001C001C00100000000C0012B
:1007C000C001C001000000000000000000000000A7
:1007D0000000C00FE01F703818301C3E0C318E3105
:1007E000C630C630C638C638C63CC6348EF78CF321
:1007F0001C003808F00FC0070000000000000000D7
:10080000000000000000000000000000C001C00364
:10081000E003600760077006300E380E381C181CA5
:10082000FC3FFC3F0E380E700E7007E00000000029
:1008300000000000000000000000000000000000B8
:10084000FC07FC0F1C1E1C1C1C1C1C0EFC07FC07C0
:100850001C1E1C3C1C381C381C381C3CFC1FFC0794
:100860000000000000000000000000000000000088
:1008700000000000C01FF03F78303C001C000E005C
:100880000E000E000E000E000E001C003C00782032
:10089000F03FC01F0000000000000000000000004A
:1008A0000000000000000000FC07FC0F1C3C1C388E
:1008B0001C781C701C701C701C701C701C701C3808
:1008C0001C381C1EFC0FFC03000000000000000090
:1008D000000000000000000000000000F83FF83FAA
:1008E00038003800380038003800F81FF81F38008A
:1008F0003800380038003800F87FF87F000000002A
:1009000000000000000000000000000000000000E7
:10091000F87FF87F38003800380038003800F83F9A
:10092000F83F380038003800380038003800380008
:1009300000000000000000000000000000000000B7
:1009400000000000C01FF03F78303C001C000E008B
:100950000E000E000E3F0E3F0E381C383C38783823
:10096000F03FC01F00000000000000000000000079
:1009700000000000000000001C381C381C381C3827
:100980001C381C381C38FC3FFC3F1C381C381C38F9
:100990001C381C381C381C38000000000000000007
:1009A000000000000000000000000000FC1FFC1F11
:1009B000C001C001C001C001C001C001C001C0012F
:1009C000C001C001C001C001FC1FFC1F00000000ED
:1009D0000000000000000000000000000000000017
:1009E000F80FF80F000E000E000E000E000E000EA5
:1009F000000E000E000E000E000E0407FC03FC01AA
:100A000000000000000000000000000000000000E6
:100A1000000000001C781C3C1C1E1C0F1C079C03C3
:100A2000DC01FC00DC01DC039C071C0F1C1E1C3CD1
:100A30001C781CF80000000000000000000000000E
:100A400000000000000000003800380038003800C6
:100A500038003800380038003800380038003800D6
:100A600038003800F83FF83F0000000000000000A8
:100A70000000000000000000000000000E381E3CD6
:100A80001E3C1E3C363636363636663266336633A4
:100A9000C631C631C63106300630063000000000CF
:100AA0000000000000000000000000000000000046
:100AB0001C301C303C307C307C30FC30EC31CC3194
:100AC000CC338C370C3F0C3E0C3E0C3C0C380C38B5
:100AD0000000000000000000000000000000000016
:100AE00000000000E007F00F381C1C381C380E70A6
:100AF0000E700E700E700E700E701C381C38381C84
:100B0000F00FE007000000000000000000000000FF
:100B10000000000000000000F81FF83F387838702F
:100B2000387038703878383CF81FF80738003800CB
:100B300038003800380038000000000000000000D5
:100B4000000000000000000000000000E007F00FBF
:100B5000381C1C381C380E700E700E700E700E7023
:100B60000E701C381C38381CF00FE007001E00788F
:100B700000F0004000000000000000000000000045
:100B8000FC07FC0F1C1E1C1C1C1C1C1C1C0EFC0748
:100B9000FC039C071C071C0F1C1E1C3C1C381C78EB
:100BA0000000000000000000000000000000000045
:100BB00000000000E00FF81F3C181C001C003C0067
:100BC000F800F007C01F003E0038003800380C1C49
:100BD000FC1FF00700000000000000000000000003
:100BE0000000000000000000FF7FFF7FC001C00187
:100BF000C001C001C001C001C001C001C001C001ED
:100C0000C001C001C001C0010000000000000000E0
:100C10000000000000000000000000001C701C70BC
:100C20001C701C701C701C701C701C701C701C7064
:100C30001C701C703C783838F01FE00F000000007A
:100C400000000000000000000000000000000000A4
:100C500007E00E700E701C701C383C383838381C99
:100C6000701C700CE00EE00EE007C007C0078003A8
:100C70000000000000000000000000000000000074
:100C80000000000003C003C007C08661C663C663DE
:100C9000C663C6634E766C366C366C362C3E3C3C76
:100CA0003C1C3C1C00000000000000000000000094
:100CB00000000000000000001EE03C707838781C46
:100CC000F00EE007C003C003C007E007600F301E4E
:100CD000183C1C380E7807F00000000000000000EF
:100CE00000000000000000000000000007E00E709F
:100CF0001C301C18381C780E7007E003E003C0019C
:100D0000C001C001C001C001C001C001000000005D
:100D100000000000000000000000000000000000D3
:100D2000FC3FFC3F0038001C000E000780038001E0
:100D3000C000E000700038001C000E00FE3FFE3FC7
:100D4000000000000000000000000000C03FC03FA5
:100D5000C001C001C001C001C001C001C001C0018B
:100D6000C001C001C001C001C001C001C001C0017B
:100D7000C001C001C001C001C03FC03F0000000071
:100D800006000C000C001800180030003000600055
:100D90006000C000C0008001800100030003000665
:100DA0000006000C000C0018001800300030006035
:100DB00000000000FC03FC03800380038003800329
:100DC000800380038003800380038003800380030B
:100DD00080038003800380038003800380038003FB
:100DE000FC03FC0300000000000000010001800380
:100DF0008003C003C006E006600C300C30181818E1
:100E000018180C300C3006600000000000000000D4
:100E100000000000000000000000000000000000D2
:100E200000000000000000000000000000000000C2
:100E300000000000000000000000000000000000B2
:100E400000000000FFFFFFFF000000000000C001E5
:100E50008003000700000000000000000000000008
:100E60000000000000000000000000000000000082
:100E70000000000000000000000000000000000072
:100E80000000000000000000000000000000000062
:100E9000E007F80F181E001C001CE01FF01F381C94
:100EA0001C1C1C1C1C1C3C1EF87BF0780000000065
:100EB00000000000000000001C001C001C001C00C2
:100EC0001C001C009C07DC1F7C1C3C381C381C3898
:100ED0001C381C381C381C381C1C3C1EFC0FCC0752
:100EE0000000000000000000000000000000000002
:100EF0000000000000000000C01FF03F7820380014
:100F00001C001C001C001C001C003C003800F820C9
:100F1000F03FC01F000000000000000000000000C3
:100F2000007000700070007000700070C073F07F7F
:100F3000787C38701C701C701C701C701C701C70CD
:100F40003C78387CF077E07300000000000000007F
:100F50000000000000000000000000000000000091
:100F6000C007F00F781C38381C381C38FC3FFC3F99
:100F70001C001C0038007820F03FC01F000000005B
:100F8000000000000000000000FF80FFC003C0015F
:100F9000C001C001FC7FFC7FC001C001C001C001D5
:100FA000C001C001C001C001C001C001C001C00139
:100FB0000000000000000000000000000000000031
:100FC0000000000000000000C073F07F787C3870E3
:100FD0001C701C701C701C701C701C703C78387C61
:100FE000F077E07300700038183CF81FF00700003D
:100FF0001C001C001C001C001C001C001C0FDC1F23
:101000007C3C3C381C381C381C381C381C381C38BC
:101010001C381C381C381C38000000000000000080
:101020000000000080038003800300000000000037
:10103000FC03FC03800380038003800380038003A0
:10104000800380038003800380038003000000008E
:101050000000000000000000000E000E000E000066
:1010600000000000F80FF80F000E000E000E000E3A
:10107000000E000E000E000E000E000E000E000E00
:10108000000E000E0407FC07F801000038003800CD
:101090003800380038003800383C381E380E380F19
:1010A000B807B803F803B803B807380F380E381E6E
:1010B000383C38780000000000000000000000000C
:1010C000F807F807000700070007000700070007F8
:1010D00000070007000700070007000700070007D8
:1010E00000070007000700070000000000000000E4
:1010F00000000000000000000000000000000000F0
:10110000CE31EE79FE7F9E779E738E738E738E73D3
:101110008E738E738E738E738E738E7300000000C9
:1011200000000000000000000000000000000000BF
:10113000000000001C0FDC1F7C3C3C381C381C38B5
:101140001C381C381C381C381C381C381C381C38FF
:10115000000000000000000000000000000000008F
:101160000000000000000000E003F80F3C1E1C1C03
:101170000E380E380E380E380E380E381C1C3C1E39
:10118000F80FE00300000000000000000000000075
:101190000000000000000000000000009C07DC1FB1
:1011A0007C1C3C381C381C381C381C381C381C383B
:1011B0001C1C3C1EFC0F9C071C001C001C001C007F
:1011C0001C00000000000000000000000000000003
:1011D000E039F83F3C3E1C380E380E380E380E38D9
:1011E0000E380E381E3C1C3EF83BF03800380038F4
:1011F0000038003800380000000000000000000047
:1012000000000000703E703FF031F0307000700060
:10121000700070007000700070007000700070004E
:1012200000000000000000000000000000000000BE
:101230000000000000000000E00FF01F78103800F0
:101240003800F801F007801F003C00380038183CD7
:10125000F81FF00700000000000000000000000080
:101260000000000000000000E000E000FC3FFC3F48
:10127000E000E000E000E000E000E000E000E0006E
:10128000E000E001C03F803F0000000000000000DF
:10129000000000000000000000000000000000004E
:1012A0001C381C381C381C381C381C381C381C389E
:1012B0001C381C381C3C3C3EF83BF0380000000059
:1012C000000000000000000000000000000000001E
:1012D000000000001E701C381C383C383818381CC0
:1012E000701C700CE00EE00EE006C007C007800323
:1012F00000000000000000000000000000000000EE
:10130000000000000000000003C087C38743C663DD
:10131000C66346626E666E266C362C363C3C3C3CA0
:101320003C1C181C00000000000000000000000031
:101330000000000000000000000000001E303C180B
:10134000780C700EF006E003C003C003E007700FD6
:10135000300E381E1C3C0E7800000000000000001B
:10136000000000000000000000000000000000007D
:101370001E701C301C383818381C781C700EF00E8B
:10138000E007E007C003C003C0018001C001C00046
:10139000E0007C003C0000000000000000000000B5
:1013A00000000000FC3FFC3F0038001C000E00075E
:1013B0008003C001E000700038001C00FC3FFC3FCF
:1013C000000000000000000000000000001F801F5F
:1013D000C003C001C001C0018003800380038003FB
:1013E000C001F800F800C00180038003800380037F
:1013F000C001C001C001C003801F001F0000000029
:1014000080018001800180018001800180018001D4
:1014100080018001800180018001800180018001C4
:1014200080018001800180018001800180018001B4
:10143000000000007C00FC00E001C001C001C00110
:10144000E000E000E000E000C001800F800FC0017C
:10145000E000E000E000E000C001C001C001E001E8
:10146000FC007C0000000000000000000000000004
:101470000000000000000000000000000000786094
:10148000FC63C63F061E00000000000000000000D4
:10149000000000000000000000000000000000004C
:1014A00000000000F80F08080808080808080808E5
:1014B00008080808080808080808080808080808AC
:1014C0000808F80F00000000000000000000000005
:1014D00000000000000000000000000C1E1E1E0C9A
:1014E0000C000C0C00000066666624000000000082
:1014F00000000036367F3636367F363600000C0C5C
:101500003E03031E30301F0C0C0000000023331874
:101510000C0633310000000E1B1B0E5F7B333B6E4D
:101520000000000C0C0C0600000000000000003061
:10153000180C0606060C1830000000060C18303097
:1015400030180C060000000000663CFF3C660000FE
:10155000000000000018187E1818000000000000AD
:101560000000000000001C1C060000000000007FBE
:1015700000000000000000000000000000001C1C33
:1015800000000000406030180C0603010000003E1F
:1015900063737B6B6F67633E000000080C0F0C0CDD
:1015A0000C0C0C3F0000001E333330180C06333F88
:1015B0000000001E3330301C3030331E000000307D
:1015C000383C36337F3030780000003F0303031F80
:1015D0003030331E0000001C0603031F3333331E5C
:1015E0000000007F63636030180C0C0C0000001ECC
:1015F0003333331E3333331E0000001E3333333E88
:1016000018180C0E00000000001C1C00001C1C0020
:1016100000000000001C1C00001C1C180C00003006
:10162000180C0603060C18300000000000007E00B5
:101630007E000000000000060C18306030180C0618
:101640000000001E3330180C0C000C0C0000003E93
:1016500063637B7B7B03033E0000000C1E3333334C
:101660003F3333330000003F6666663E6666663F82
:101670000000003C666303030363663C0000001F38
:10168000366666666666361F0000007F4606263EA2
:101690002606467F0000007F6646263E2606060F89
:1016A0000000003C666303037363667C0000003344
:1016B0003333333F333333330000001E0C0C0C0C38
:1016C0000C0C0C1E00000078303030303333331EE9
:1016D000000000676636361E363666670000000F6B
:1016E000060606064666667F00000063777F7F6B0E
:1016F000636363630000006363676F7F7B7363638F
:101700000000001C366363636363361C0000003F07
:101710006666663E0606060F0000001C36636363BD
:10172000737B3E307800003F6666663E36666667CD
:101730000000001E3333030E1833331E0000003F39
:101740002D0C0C0C0C0C0C1E000000333333333307
:101750003333331E000000333333333333331E0C43
:10176000000000636363636B6B3636360000003342
:1017700033331E0C1E333333000000333333331E38
:101780000C0C0C1E0000007F7319180C0646637FBA
:101790000000003C0C0C0C0C0C0C0C3C000000007D
:1017A0000103060C183060400000003C303030303F
:1017B0003030303C0000081C3663000000000000A0
:1017C000000000000000000000000000FF000C0C02
:1017D00018000000000000000000000000001E30A3
:1017E0003E33336E0000000706063E666666663BC3
:1017F0000000000000001E330303331E0000003809
:1018000030303E333333336E0000000000001E33AF
:101810003F03331E0000001C3606061F0606060F97
:101820000000000000006E3333333E30331E0007EB
:101830000606366E666666670000001818001E18F9
:101840001818187E0000003030003C303030303343
:10185000331E0007060666361E3666670000001E49
:10186000181818181818187E0000000000003F6BA8
:101870006B6B6B630000000000001F3333333333A6
:101880000000000000001E333333331E0000000050
:1018900000003B666666663E060F000000006E3381
:1018A0003333333E30780000000037766E06060F83
:1018B0000000000000001E330618331E0000000068
:1018C00004063F060606361C000000000000333305
:1018D0003333336E000000000000333333331E0C0B
:1018E00000000000000063636B6B363600000000F0
:1018F000000063361C1C36630000000000006666B2
:1019000066663C30180F000000003F311806233F88
:10191000000000380C0C0603060C0C380000001800
:101920001818180018181818000000070C0C1830A8
:10193000180C0C07000000CE5B73000000000000D4
:101940000000000000081C3663637F0000001124C3
:101950001FBECFEFD8E0DEBFCDBF11E0A0E0B1E009
:10196000E4E9FBE302C005900D92A83BB107D9F76B
:1019700022E0A8EBB1E001C01D92A731B207E1F768
:101980000E94CC120C94C81D0C940000EAE7F0E011
:101990008081806480830895ECE7F0E0808180643A
:1019A0008083EAE7F0E080818068808380818860BE
:1019B0008083808187608083EEE7F0E080818160B2
:1019C00080830E94C60C0895EAE7F0E080818F775B
:1019D0008083EEE7F0E080818E7F808308950F930F
:1019E0001F93CF93DF930E9471128DE991E00E94C3
:1019F0009E1480EE97E00E94DF1580E090E00E9448
:101A0000E61542E151E062E370E08EE190E00E9471
:101A100061194CE151E066E470E08EE190E00E94D3
:101A2000611948E251E06AE570E08EE190E00E94C1
:101A3000611983ED90E30197F1F700C000000FEF0B
:101A40001FEF2CED30E04EE150E06CE870E08EE1ED
:101A500090E00E940A152CED30E04AE550E06CE879
:101A600070E08AE590E00E940A152CED30E04AE52E
:101A700050E06CED70E08EE190E00E940A1520EAE3
:101A800030E04EE650E060EA70E08AE590E00E94C7
:101A90000A152EEB30E04EE650E06EEB70E08AE582
:101AA00090E00E940A152EEB30E04EE650E060EA2E
:101AB00070E08EE690E00E940A15CBEDD0E00CE2DB
:101AC00015EF9E0149E550E0BE018FE190E00E94D4
:101AD0000A159FE926E881E0915020408040E1F717
:101AE00000C000002197C539D10549F7C6E9D0E00B
:101AF0000EE317EE9E0149E550E0BE018FE190E054
:101B00000E940A159FE926E881E09150204080401C
:101B1000E1F700C000002197CC38D10549F7DF91EB
:101B2000CF911F910F910895CF92DF92EF92FF9284
:101B30000F931F93CF93DF93CDB7DEB764970FB6A4
:101B4000F894DEBF0FBECDBF0E9471128AEA91E009
:101B50000E949E1480EE97E00E94DF1580E090E0E6
:101B60000E94E61540E351E062E370E08EE190E010
:101B70000E9461194DE351E066E470E08EE190E06F
:101B80000E9461194AE451E06AE570E08EE190E05C
:101B90000E94611947E551E06EE670E08EE190E049
:101BA0000E9461190FEF1FEF2CE830E042E850E08F
:101BB0006CE870E08EE190E00E940A1520EA30E0C7
:101BC00042E850E060EA70E08EE190E00E940A1581
:101BD00020EA30E04EE150E06CE870E08EE190E009
:101BE0000E940A1520EA30E042E850E06CE870E01C
:101BF00082E890E00E940A1524EB30E042E850E0D1
:101C000064EB70E08EE190E00E940A1528EC30E071
:101C100042E850E068EC70E08EE190E00E940A1526
:101C200028EC30E04EE150E064EB70E08EE190E0B3
:101C30000E940A1528EC30E042E850E064EB70E0C6
:101C400082E890E00E940A158091C3018F938091F1
:101C5000C2018F9383E691E09F938F938E010F5F74
:101C60001F4F1F930F930E94DE1A8FEF9FEF0E946A
:101C7000DF15A80169EB70E083E290E00E94611932
:101C80000F900F900F900F900F900F900CE611E0B7
:101C9000CE0101967C01C82EDF2C8091C1018F936B
:101CA0008091C0018F931F930F93FF92EF920E9438
:101CB000DE1A8FEF9FEF0E94DF154C2D5D2D61E93D
:101CC00070E083E290E00E9461190E9488130E94F4
:101CD000BB130F900F900F900F900F900F908330C9
:101CE00089F118F4823031F0D8CF843071F085302A
:101CF000B1F0D3CF1092C1011092C0011092C30174
:101D00001092C2010E94940DC8CF8091C0019091A1
:101D1000C10101969093C1018093C001BECF809113
:101D2000C0019091C1019C01215031092AF4109207
:101D3000C1011092C001B1CF01979093C10180936E
:101D4000C001ABCF64960FB6F894DEBF0FBECDBF17
:101D5000DF91CF911F910F91FF90EF90DF90CF9087
:101D60000895CF92DF92EF92FF920F931F93CF933C
:101D7000DF93CDB7DEB764970FB6F894DEBF0FBE22
:101D8000CDBF0E9471128AEA91E00E949E1480EEFB
:101D900097E00E94DF1580E090E00E94E61540E3A6
:101DA00051E062E370E08EE190E00E9461194DE342
:101DB00051E066E470E08EE190E00E9461194AE42F
:101DC00051E06AE570E08EE190E00E94611947E51C
:101DD00051E06EE670E08EE190E00E9461190FEF35
:101DE0001FEF24EB30E042E850E064EB70E08EE15E
:101DF00090E00E940A1528EC30E042E850E068ECE0
:101E000070E08EE190E00E940A1528EC30E04EE18F
:101E100050E064EB70E08EE190E00E940A1528EC3F
:101E200030E042E850E064EB70E082E890E00E942D
:101E30000A152CE830E042E850E06CE870E08EE1F2
:101E400090E00E940A1520EA30E042E850E060EAA3
:101E500070E08EE190E00E940A1520EA30E04EE149
:101E600050E06CE870E08EE190E00E940A1520EAF4
:101E700030E042E850E06CE870E082E890E00E94D8
:101E80000A158091C1018F938091C0018F938CE6D8
:101E900091E09F938F938E010F5F1F4F1F930F93BE
:101EA0000E94DE1A8FEF9FEF0E94DF15A80161E903
:101EB00070E083E290E00E9461190F900F900F9004
:101EC0000F900F900F9003E611E0CE0101967C0178
:101ED000C82EDF2C8091C3018F938091C2018F9314
:101EE0001F930F93FF92EF920E94DE1A8FEF9FEFE6
:101EF0000E94DF154C2D5D2D69EB70E083E290E0D0
:101F00000E9461190E9488130E94BB130F900F90CA
:101F10000F900F900F900F908330A1F018F4823043
:101F200031F0D8CF843089F08530C9F0D3CF10920A
:101F3000C1011092C0011092C3011092C2010E940F
:101F4000940DC8CF0E943B141DC08091C201909196
:101F5000C30101969093C3018093C201BBCF8091CE
:101F6000C2019091C3019C01215031092AF41092C1
:101F7000C3011092C201AECF01979093C301809329
:101F8000C201A8CF64960FB6F894DEBF0FBECDBFD6
:101F9000DF91CF911F910F91FF90EF90DF90CF9045
:101FA00008958F929F92AF92BF92CF92DF92EF925D
:101FB000FF920F931F93CF93DF93CDB7DEB7649754
:101FC0000FB6F894DEBF0FBECDBF6091C401709113
:101FD000C5018091C6019091C70120E831E541E03B
:101FE00050E00E94971A4B015C015F934F933F931F
:101FF0002F938CE691E09F938F938E010F5F1F4F7D
:102000001F930F930E94DE1A8FEF9FEF0E94DF1540
:10201000A80161E970E083E290E00E9461190F2E4F
:10202000F4E1FF2EF02DF8018F2D11928A95E9F73A
:10203000C501B40120E13EE040E050E00E94971A63
:102040004B015C015F934F933F932F9385E791E0A2
:102050009F938F931F930F930E94DE1A8FEF9FEF32
:102060000E94DF15A80165EA70E08CE390E00E9411
:102070006119F8018F2D11928A95E9F7C501B40114
:102080002CE330E040E050E00E94971AE62ED72E75
:10209000C82EB92E5F934F933F932F938FE791E014
:1020A0009F938F931F930F930E94DE1A8FEF9FEFE2
:1020B0000E94DF15A80169EB70E085E590E00E94C1
:1020C0006119F8018F2D11928A95E9F7BF92CF928D
:1020D000DF92EF9288E891E09F938F931F930F9385
:1020E0000E94DE1A0FB6F894DEBF0FBECDBF8FEF91
:1020F0009FEF0E94DF15A8016DEC70E08EE690E086
:102100000E946119F8018F2D11928A95E9F780914B
:10211000C3018F938091C2018F9383E691E09F93D7
:102120008F931F930F930E94DE1A8FEF9FEF0E94F1
:10213000DF15A80160E070E087E390E00E9461197C
:10214000F8011192FA94E9F78091BF018F93809181
:10215000BE018F9380E991E09F938F931F930F931C
:102160000E94DE1A8FEF9FEF0E94DF15A8016EE13B
:1021700070E08BE490E00E9461190FB6F894DEBF26
:102180000FBECDBF64960FB6F894DEBF0FBECDBFB5
:10219000DF91CF911F910F91FF90EF90DF90CF9043
:1021A000BF90AF909F908F900895CF93DF9300D012
:1021B000CDB7DEB789831A82CE0101960E94CE196F
:1021C00080E090E00F900F90DF91CF910895239AD7
:1021D00024982C98259A229A209A579A80E58CBDAB
:1021E00081E08DBD08958EBD0DB407FEFDCF8EB587
:1021F000089528982A980E94F3102A9A0895289AF8
:102200002A980E94F3102A9A0895CF93C82F86E344
:102210000E94F9108C2F83708093C8018130B1F037
:1022200028F0823019F1833089F13FC088E40E94A0
:10223000FF1080EF90E0909311018093100180E4F3
:1022400091E090930F0180930E012FC088E20E94CD
:10225000FF1080E491E0909311018093100180EFD2
:1022600090E090930F0180930E011FC088E80E94B8
:10227000FF1080EF90E0909311018093100180E4B3
:1022800091E090930F0180930E010FC088EE0E94A1
:10229000FF1080E491E0909311018093100180EF92
:1022A00090E090930F0180930E01CF9108955F9875
:1022B0000E94E710569A5F9A8FE19EE40197F1F72A
:1022C00000C000005F989FEF29EF80E09150204010
:1022D0008040E1F700C000005F9A9FEF22E587E0B1
:1022E000915020408040E1F700C0000083E00E9450
:1022F00005118AE30E94F91085E50E94FF1081E133
:102300000E94F9109FEF2BED85E091502040804016
:10231000E1F700C0000089E20E94F9105E9808957C
:10232000CF92DF92EF92FF920F931F93CF93DF93A1
:10233000D82EC92E162F072FF42EE52EC22FD32FFD
:102340008AE20E94F9108C2D0E94FF108D2D0E94B0
:10235000FF108E2D0E94FF108F2D0E94FF108BE228
:102360000E94F910802F0E94FF10812F0E94FF1001
:102370008D2F0E94FF108C2F0E94FF108CE20E9474
:10238000F910DF91CF911F910F91FF90EF90DF90A7
:10239000CF9008950E9490110895CF93C82F289A46
:1023A0002A98892F0E94F3108C2F0E94F3102A9AEA
:1023B000CF9108950E94CD110895CF93DF93992373
:1023C0001CF1209110013091110182179307E0F464
:1023D0007723D4F020910E0130910F01621773071B
:1023E00098F4D52FC42F9B012F5F3F4FAC014F5F57
:1023F0005F4F0E949011289A2A988D2F0E94F31007
:102400008C2F0E94F3102A9ADF91CF9108950E9499
:10241000DD110895CF92DF92EF92FF920F931F93F9
:10242000CF93DF936A01790120911001309111015E
:102430008217930708F040C040910E0150910F01A0
:1024400064177507C8F5FC01EC0DFD1D3197E21707
:10245000F30718F06901C81AD90A9B012E0D3F1D18
:10246000215031092417350718F07A01E61AF70AC6
:102470009701260F371F21503109A601480F591F18
:10248000415051090E949011289A2A981E141F0445
:1024900094F40DC0E601812F0E94F310802F0E945A
:1024A000F3102197C1F781E0E81AF10821F01C141C
:1024B0001D0484F3F8CF2A9ADF91CF911F910F91D9
:1024C000FF90EF90DF90CF9008950F931F93261BFE
:1024D000370B481B590B0E940A1280E01F910F9185
:1024E00008950F931F930E945711569A5E9820915A
:1024F0000E0130910F01409110015091110167E0E0
:1025000072E189EC91E00E944E1465E672E181E08F
:102510000E944A1A6AEC71E182E00E944A1A6AED4E
:1025200071E183E00E944A1A81E00E945E1A82E013
:102530000E945E1A83E00E945E1A00E010E020EF25
:1025400030E040E451E060E070E080E090E00E9424
:102550000A128AEA91E00E949E148FEF9FEF0E9478
:10256000DF1580E090E00E94D8158FEF9FEF0E946A
:10257000D1152EEE30E04EE351E061E070E081E0F5
:1025800090E00E94C41580E091E090931402809343
:1025900013021F910F9108951092C1011092C00172
:1025A0001092C3011092C2010E947E1378940E947F
:1025B000EF0C0E94940D0E94B10E0E9420140E9404
:1025C00071120E94CC0C0E94EF130E94D10FFFCF1A
:1025D0001F920F920FB60F9211242F933F934F9398
:1025E0005F936F937F938F939F93AF93BF93EF937B
:1025F000FF938091C4019091C501A091C601B09153
:10260000C7010197A105B105B1F00E94D10F8091DA
:10261000C4019091C501A091C601B091C701019775
:10262000A109B1098093C4019093C501A093C6018B
:10263000B093C70108C00E9438140E94E40C0E94A5
:10264000EA130E94CC12FF91EF91BF91AF919F913D
:102650008F917F916F915F914F913F912F910F904B
:102660000FBE0F901F9018951F920F920FB60F92EA
:1026700011242F933F934F935F936F937F938F9387
:102680009F93AF93BF93EF93FF93809178009091C6
:1026900079009093BF018093BE01811592408CF028
:1026A0001092A9001092A80088EE93E090939900F0
:1026B000809398008091BE019091BF018115924056
:1026C00054F484EF91E09093A9008093A8001092B5
:1026D0009900109298000E94C60CFF91EF91BF9153
:1026E000AF919F918F917F916F915F914F913F91AA
:1026F0002F910F900FBE0F901F9018958BB18C6388
:102700008BB98AB1837C8AB91EB88FE08DB90895E0
:1027100089B1869586958F7090E0AC014095509573
:102720002091B8013091B9012423352320FF06C040
:1027300042E050E05093BB014093BA0121FF06C034
:1027400043E050E05093BB014093BA0122FF06C022
:1027500044E050E05093BB014093BA0123FF06C010
:1027600025E030E03093BB012093BA019093B9018A
:102770008093B80108958091BA011092BB01109224
:10278000BA0108958BB18C7F8BB9509A519A0895F4
:10279000E0EAF0E08081806A8083808183608083CA
:1027A000E1EAF0E080818083108280818260808312
:1027B0000895E0E9F0E08081806A80838081836011
:1027C0008083E1E9F0E080818083108280818260F3
:1027D00080830895E1EAF0E08081808308950E947B
:1027E000C2130E94C8130E94D91308951F920F921A
:1027F0000FB60F9211248F939F93AF93BF93809145
:102800000D0290910E02A0910F02B091100201965C
:10281000A11DB11D80930D0290930E02A0930F0293
:10282000B093100280910C02816080930C02BF91E2
:10283000AF919F918F910F900FBE0F901F901895A1
:10284000E0E8F0E080818860808384E294EF9093F8
:1028500089008093880080818083E1E8F0E08081B6
:1028600084608083EFE6F0E0808182608083089559
:10287000109281000895A091C001B091C10120E89B
:1028800031E541E050E00E94D61A6093C401709394
:10289000C5018093C6019093C7010895FC0171831F
:1028A0006083538342833583248384E090E0968B56
:1028B000858B908F878B45505109528F418F2550C2
:1028C0003109348F238F528B418B348B238B81E0E2
:1028D00086A787A712A211A217A216A215A214A258
:1028E00011A610A613A612A615A614A68DE59CE5A2
:1028F00095AB84AB8FEF9FEF91AB80AB13AA12AA7D
:102900001486138616861586108A178610AE17AAA7
:1029100011AE13AE12AE14AE16AE15AE17AEDF0189
:10292000A05CBF4F11961C921E9212961C92F093BF
:10293000BD01E093BC0181E090E00895FC01A0910D
:10294000BC01B091BD019DE0919601900D929A95C8
:10295000E1F708958F929F92AF92BF92CF92DF924C
:10296000EF92FF920F931F93CF93DF935C01EB01E4
:102970007A0149016801481759072CF4982F8B2DCB
:102980005A01E92EF82E8C169D067CF59C2F8D2F72
:10299000E401892E982E29C08C169D0614F52DC0B1
:1029A00002ACF3ADE02D86019401A701BE01C50183
:1029B00009958111F1CF21C08501E091BC01F09111
:1029C000BD010190F081E02DA601BE01C80109956D
:1029D0000F5F1F4FE016F10684F721968C169D06B7
:1029E00064F0EA14FB0444F7F8CFE091BC01F091E5
:1029F000BD0184AD81FFF5CFD3CFDF91CF911F9182
:102A00000F91FF90EF90DF90CF90BF90AF909F908D
:102A10008F9008952F923F924F925F926F927F9284
:102A20008F929F92AF92BF92CF92DF92EF92FF92DE
:102A30000F931F93CF93DF93EC017B015A01690140
:102A40001801E091BC01F091BD0181AD81FF08C08A
:102A500007A8F0ADE02DCE010995882309F481C0C7
:102A6000A5014C1B5D0B96012E193F096A015523E8
:102A700024F4CC24DD24C41AD50A8901332324F498
:102A800000271127021B130B1416150624F06624C9
:102A90006A94762C03C066246394712C1216130674
:102AA00024F088248A94982C03C088248394912C41
:102AB000E091BC01F091BD010190F081E02DA101F8
:102AC000B701CE010995C016D10624F410161106DF
:102AD0003CF147C01C141D040CF043C05601B594D2
:102AE000A794412C512CA00EB11EAC14BD0424F0AF
:102AF000AC18BD08E80CF91CC60DD71DE091BC014F
:102B0000F091BD010190F081E02DA101B701CE014E
:102B100009958FEF481A580AC414D50421F721C02B
:102B20005801B594A794412C512CAC0CBD1CA01697
:102B3000B10624F0A01AB10AC60DD71DE80CF91C85
:102B4000E091BC01F091BD010190F081E02DA10167
:102B5000B701CE0109958FEF481A580A04151505DB
:102B600021F7DF91CF911F910F91FF90EF90DF90B0
:102B7000CF90BF90AF909F908F907F906F905F901D
:102B80004F903F902F900895E091BC01F091BD01CE
:102B9000968B858B708F678B528F418F348F238FED
:102BA0000895E091BC01F091BD01968F858F089545
:102BB000E091BC01F091BD0190A3878F0895E09151
:102BC000BC01F091BD0191AB80AB0895E091BC01D7
:102BD000F091BD0193AB82AB08952F923F924F923B
:102BE0005F926F927F928F929F92AF92BF92CF929D
:102BF000DF92EF92FF920F931F93CF93DF93CDB7A6
:102C0000DEB768970FB6F894DEBF0FBECDBF788BE6
:102C10006F874A01690138011701482F50E0FA0116
:102C2000E05BF109ED34F10598F4E65AFF4F0C949E
:102C3000B61A84E90DC089E90BC081E809C08AE9A8
:102C400007C084E805C08EE803C086EE01C088EFA7
:102C5000282F30E03A832983D10117968D919C91DA
:102C600018972817390708F401C319962D913C913C
:102C70001A97E981FA812E173F0708F4F7C21396D5
:102C80002D913C9114972115310509F4EFC2A9014A
:102C90005695479556954795569547955E874D8726
:102CA000A90147705527452B31F06D857E856F5FF3
:102CB0007F4F7E876D87D1011B966D917C911C970C
:102CC0006115710569F049815A81481B590BFB0157
:102CD000E40FF51F4081E42FF0E0FA8BE98B02C08E
:102CE0003A8B298BE091BC01F091BD0147AD41FFCA
:102CF00054C1DF01AE5BBF4F4C9141FF4EC1D101CA
:102D000015962D913C911697280D391D21503109AA
:102D10004F8558894150510969897A89460F571F53
:102D200005ACF6ADE02DB4018F8598890995E09149
:102D3000BC01F091BD01E05CFF4F40805180D101AA
:102D400012968C911297811191C015968D919C913C
:102D5000169717962D913C911897E981FA81E21BFD
:102D6000F30BE89FA001E99F500DF89F500D11242F
:102D70006D857E85469F9001479F300D569F300D93
:102D80001124A90160E070E049835A836B837C833E
:102D9000892B09F04BC06AC2D101ED91FC91E00F83
:102DA000F11F9490A114B104E9F0F5013897F88B64
:102DB000EF8790FE04C0C601F201099503C0C3016C
:102DC000F20109959694F1E0AF1AB1082F85388980
:102DD0002A153B0521F0A114B10459F703C04F8512
:102DE00058895A010F5F1F4F0E151F05A9F66981FB
:102DF0007A818B819C8129853A854B855C85620F20
:102E0000731F841F951F69837A838B839C834D81F5
:102E10005E814F5F5F4F5E834D83D10115968D912B
:102E20009C91169748175907A0F020C2812C912C2D
:102E30008D859E850197A0E0B0E09C01AD012F5FDC
:102E40003F4F4F4F5F4F29873A874B875C879E8262
:102E50008D824D855E8541155105C9F209811A8122
:102E60007A01E00EF11EA988BA8896CF813009F068
:102E7000FDC1D10115968D919C91169717962D91B4
:102E80003C911897E981FA81E21BF30B13964D915F
:102E90005C911497849F9001859F300D949F300D15
:102EA0001124E29F4001E39F900CF29F900C1124AB
:102EB000A12CB12C892B09F04EC0D8C1D101ED91C4
:102EC000FC9129853A85E20FF31F849190E09801E7
:102ED000281B390BE29EA001E39E500DF29E500D7F
:102EE0001124689E9001699E300D789E300D11244A
:102EF000CA01820F931F892F90E0F201099529855D
:102F00003A852F5F3F4F3A872987C216D306B1F61D
:102F10004D815E816F817885840E951EA61EB71E39
:102F2000D10113968D919C911497E989FA898E1B92
:102F30009F0B880E991EA11CB11C29813A812F5F1D
:102F40003F4F3A83298315968D919C9116972817A8
:102F50003907C0F08BC11A8219827301FF2400E087
:102F600011E03601772489899A890197A0E0B0E0C1
:102F7000AC01BD014F5F5F4F6F4F7F4F4D835E834D
:102F80006F83788769897A896115710549F29A8614
:102F900089866B01C80CD91C91CFD10112964C9136
:102FA00012974111B0C015962D913C911697E98169
:102FB000FA81E81BF90BE29FA001E39F500DF29FFD
:102FC000500D11246D857E85469FC001479F900D51
:102FD000569F900D1124AC0160E070E04D835E833C
:102FE0006F837887232B09F441C11A8619868D8552
:102FF0009E850197A0E0B0E09C01AD012F5F3F4F9F
:103000004F4F5F4F2B8B3C8B4D8B5E8B26013A8253
:1030100029824F855889588F4F8B6D857E85611524
:10302000710509F45CC0ED80FE805B01AE0CBF1C35
:10303000C988DA88A981BA81ED91FC91EE0DFF1D56
:103040003490C114D104A1F10F89188D085F1F4F6E
:1030500030FE0DC0E091BC01F091BD010190F08106
:10306000E02DA201B4018F89988D09950CC0E091E3
:10307000BC01F091BD010190F081E02DA301B401EC
:103080008F89988D099536942F89388D2F5F3F4F02
:10309000388F2F8B31E0C31AD1084F89588D4017D4
:1030A000510721F0C114D10499F602C0188F0F8B7B
:1030B0005FEFE51AF50AEA14FB0409F0BBCF6D8156
:1030C0007E818F8198852B893C894D895E89620F2D
:1030D000731F841F951F6D837E838F8398873FEFB7
:1030E000831A930A49855A854F5F5F4F5A874987EC
:1030F000A981BA8115968D919C9116974817590709
:1031000008F487CFB3C0413009F0B0C0F101458168
:10311000568169817A81681B790B249FC001259FA4
:10312000900D349F900D1124689F9001699F300D80
:10313000789F300D1124C901A0E0B0E089839A8303
:10314000AB83BC83452B09F491C01E821D82A988E4
:10315000BA88AF85B889AA0EBB1E7724E12CFF245C
:10316000F3942601552489899A890197A0E0B0E05B
:103170009C01AD012F5F3F4F4F4F5F4F29873A872B
:103180004B875C874F8558895E874D8769897A8927
:10319000672B09F448C009811A81CD80DE80C80CF4
:1031A000D91CD101ED91FC91E00FF11F849190E0C9
:1031B0009701281B390B629EA001639E500D729EE1
:1031C000500D1124489E9001499E300D589E300D9F
:1031D0001124CA01820F931FE091BC01F091BD013F
:1031E0000190F081E02D492F50E0B6018D859E853C
:1031F0000995ED85FE853196FE87ED870F5F1F4FA0
:10320000AE16BF0671F629813A814B815C816985D2
:103210007A858B859C85260F371F481F591F298368
:103220003A834B835C83D10113968D919C911497C3
:10323000E989FA898E1B9F0B29813A814B815C8138
:10324000280F391F411D511D29833A834B835C830D
:103250004D815E814F5F5F4F5E834D8315968D91EB
:103260009C9116974817590708F48CCF68960FB6AB
:10327000F894DEBF0FBECDBFDF91CF911F910F91AC
:10328000FF90EF90DF90CF90BF90AF909F908F9086
:103290007F906F905F904F903F902F900895EF92A6
:1032A000FF920F931F93E090BC01F090BD0191E25B
:1032B000E90EF11C0E94ED151F910F91FF90EF9008
:1032C00008958F929F92AF92BF92CF92DF92EF922A
:1032D000FF920F931F93CF93DF93882E992E7B013C
:1032E000EA01C82ED92E4AC0282F30E0E091BC0157
:1032F000F091BD0140A551A52417350708F43EC043
:1033000062A573A562177307C8F18A3019F4C280E9
:10331000D38034C0A4A5B5A5109731F0241B350B7C
:10332000A20FB31FAC9001C0A4A0B12CA6014A0DFE
:103330005B1D2281338121503109241735075CF44C
:1033400097A526A137A1290F311D97FD3A95E20EC9
:10335000F31EC82CD92C02A913A920A931A9A701B1
:10336000B6010E944F19E091BC01F091BD0186A504
:10337000A80EB11C87FDBA94CA0CDB1C899181117F
:10338000B3CFDF91CF911F910F91FF90EF90DF901E
:10339000CF90BF90AF909F908F900895FF920F9322
:1033A0001F93CF93DF93EC016CC02AE0F21209C0A7
:1033B000E091BC01F091BD0182819381928B818B60
:1033C00060C0E091BC01F091BD0184A595A5009776
:1033D00051F0AF2DB0E020A531A5A21BB30BA80F73
:1033E000B91F8C9101C084A1682F70E086A59B0154
:1033F000280F311D87FD3A95C90121893289820F35
:10340000931F928B818B418D528D860F971F48178A
:1034100059078CF485899689928B818B27A586A183
:1034200097A1820F911D27FD9A9523893489820FD8
:10343000931F948B838B238D348D6389748986A12C
:1034400097A1860F971F2817390764F485899689F5
:10345000928B818B6789708D748B638B078D10A124
:103460000E94AA14E091BC01F091BD01078D10A14A
:10347000258D368D43895489618972898F2D0E94EB
:103480004F19F990F11091CFDF91CF911F910F91CA
:10349000FF900895843088F42091BC013091BD01E3
:1034A00090E0FC01EE0FFF1F8E0F9F1FF901E80F48
:1034B000F91F70AF67AB83E081AF08958430A0F44B
:1034C0004091BC015091BD0190E0DC01AA0FBB1FEF
:1034D000A80FB91FA40FB51FD9962C91D99720FF1B
:1034E00003C0FD01226021AF0895A1E21A2EAA1B9C
:1034F000BB1BFD010DC0AA1FBB1FEE1FFF1FA217A4
:10350000B307E407F50720F0A21BB30BE40BF50BA0
:10351000661F771F881F991F1A9469F76095709529
:10352000809590959B01AC01BD01CF010895052EBA
:1035300097FB1EF400940E94AE1A57FD07D00E941C
:10354000751A07FC03D04EF40C94AE1A50954095B2
:10355000309521953F4F4F4F5F4F0895909580953F
:10356000709561957F4F8F4F9F4F0895EE0FFF1F0E
:103570000590F491E02D0994A29FB001B39FC00182
:10358000A39F700D811D1124911DB29F700D811D8F
:103590001124911D08950E94BC1AA59F900DB49FFF
:1035A000900DA49F800D911D11240895B7FF0C94D8
:1035B000CB1A0E94CB1A821B930B0895AEE0B0E0A9
:1035C000E4EEFAE10C949F1D0D891E8986E08C8340
:1035D0001A8309838FEF9FE79E838D83AE01475E39
:1035E0005F4F6F89788DCE0101960E94001BEF819D
:1035F000F885E00FF11F10822E96E4E00C94BB1DBD
:10360000ABE0B0E0E6E0FBE10C94911D6C017B01C6
:103610008A01FC0117821682838181FFCCC1CE0111
:1036200001963C01F6019381F70193FD859193FF8B
:1036300081917F01882309F4BAC1853239F493FD61
:10364000859193FF81917F01853229F4B60190E045
:103650000E94F71CE7CF912C212C312CFFE1F315B0
:10366000D8F08B3279F038F4803279F08332A1F4DB
:10367000232D20611DC08D3261F0803369F4232D2C
:10368000216016C0832D8260382EE32DE4603E2E2B
:103690002AC0F32DF8601DC037FC2DC020ED280F87
:1036A0002A3040F08E32B9F436FC81C1232D2064DB
:1036B000322E19C036FE06C08AE0989E200D1124D5
:1036C000922E11C0EAE02E9E200D1124222EF32D01
:1036D000F0623F2E08C08C3621F4832D8068382E8E
:1036E00002C0883641F4F70193FD859193FF8191E3
:1036F0007F018111B3CF982F9F7D9554933028F48B
:103700000C5F1F4F9FE399830DC0833631F08337E1
:1037100071F0833509F059C021C0F8018081898397
:103720000E5F1F4F88248394912C530113C02801EE
:10373000F2E04F0E511CF801A080B18036FE03C0AC
:10374000692D70E002C06FEF7FEFC5010E94EC1C95
:103750004C018201F32DFF773F2E16C0280122E095
:10376000420E511CF801A080B18036FE03C0692DC5
:1037700070E002C06FEF7FEFC5010E94E11C4C01B9
:10378000F32DF0683F2E820133FC1BC0822D90E0A8
:1037900088169906B0F4B60180E290E00E94F71C0A
:1037A0002A94F4CFF50137FC859137FE81915F01B2
:1037B000B60190E00E94F71C21102A9421E0821AA1
:1037C00091088114910471F7E8C0843611F08936AC
:1037D00041F5F80137FE07C06081718182819381D4
:1037E0000C5F1F4F08C060817181072E000C880B91
:1037F000990B0E5F1F4FF32DFF763F2E97FF09C0E9
:1038000090958095709561957F4F8F4F9F4FF06891
:103810003F2E2AE030E0A3010E94331D882E861837
:1038200045C0853731F4232D2F7EB22E2AE030E0BB
:1038300025C0932D997FB92E8F36C1F018F48835A5
:1038400079F0B5C0803719F0883721F0B0C0E92F82
:10385000E061BE2EB4FE0DC0FB2DF460BF2E09C08A
:1038600034FE0AC0292F2660B22E06C028E030E0C0
:1038700005C020E130E002C020E132E0F801B7FEEF
:1038800007C060817181828193810C5F1F4F06C0E8
:103890006081718180E090E00E5F1F4FA3010E9464
:1038A000331D882E8618FB2DFF773F2E36FE0DC068
:1038B000232D2E7FA22E891458F434FE0BC032FC27
:1038C00009C0832D8E7EA82E05C0B82CA32C03C062
:1038D000B82C01C0B92CA4FE0FC0FE01E80DF11DEB
:1038E0008081803321F49A2D997EA92E09C0A2FEF1
:1038F00006C0B394B39404C08A2D867809F0B394BB
:10390000A3FC11C0A0FE06C0B21488F4280C922CAF
:103910009B180EC0B21460F4B60180E290E00E94E1
:10392000F71CB394F7CFB21418F42B1802C0982CDC
:10393000212CA4FE10C0B60180E390E00E94F71C89
:10394000A2FE17C0A1FC03C088E790E002C088E592
:1039500090E0B6010CC08A2D867859F0A1FE02C015
:103960008BE201C080E2A7FC8DE2B60190E00E94EC
:10397000F71C891438F4B60180E390E00E94F71C2C
:103980009A94F7CF8A94F301E80DF11D8081B60176
:1039900090E00E94F71C8110F5CF222009F442CE5E
:1039A000B60180E290E00E94F71C2A94F6CFF6015F
:1039B0008681978102C08FEF9FEF2B96E2E10C94F6
:1039C000AD1DFC010590615070400110D8F7809545
:1039D00090958E0F9F1F0895FC01615070400190DB
:1039E0000110D8F7809590958E0F9F1F08950F9323
:1039F0001F93CF93DF93FB01238121FD03C08FEF42
:103A00009FEF2CC022FF16C046815781248135814B
:103A10004217530744F4A081B1819D012F5F3F4FAE
:103A2000318320838C93268137812F5F3F4F3783EB
:103A3000268314C08B01EC01FB010084F185E02D8D
:103A40000995892BE1F6D80116968D919C911797CF
:103A5000019617969C938E931697CE01DF91CF9186
:103A60001F910F910895FA01AA27283051F12031B2
:103A700081F1E8946F936E7F6E5F7F4F8F4F9F4F02
:103A8000AF4FB1E03ED0B4E03CD0670F781F891F44
:103A90009A1FA11D680F791F8A1F911DA11D6A0F12
:103AA000711D811D911DA11D20D009F468943F91C5
:103AB0002AE0269F11243019305D3193DEF6CF01C4
:103AC0000895462F4770405D4193B3E00FD0C9F78A
:103AD000F6CF462F4F70405D4A3318F0495D31FDF7
:103AE0004052419302D0A9F7EACFB4E0A69597954A
:103AF000879577956795BA95C9F700976105710520
:103B000008959B01AC010A2E069457954795379569
:103B10002795BA95C9F7620F731F841F951FA01DC3
:103B200008952F923F924F925F926F927F928F9261
:103B30009F92AF92BF92CF92DF92EF92FF920F933C
:103B40001F93CF93DF93CDB7DEB7CA1BDB0B0FB646
:103B5000F894DEBF0FBECDBF09942A883988488803
:103B60005F846E847D848C849B84AA84B984C88499
:103B7000DF80EE80FD800C811B81AA81B981CE0F90
:103B8000D11D0FB6F894DEBF0FBECDBFED01089575
:043B9000F894FFCFD7
:103B94000000000200000000D510000000004001F9
:103BA400F0004D454741464F524345004645524D6E
:103BB400454E5441544F52004348414D42455200F2
:103BC4004F4B202D20436F6E6669726D0041202D8E
:103BD40020496E6372656173650042202D2044653F
:103BE40063726561736500455343202D20526573EC
:103BF40065740054656D703A2025640044617973DE
:103C04003A20256400486F7572733A202564004D8C
:103C1400696E733A202564005365633A2025640075
:103C240054656D70204144433A202564004E0100E0
:103C340010001A0020007F000000CE140008000CC1
:083C44000020007F00000000D9
:00000001FF
