:100000000C945A000C9477000C9477000C947700B1
:100010000C9477000C9477000C9477000C94770084
:100020000C9477000C9477000C9477000C947F006C
:100030000C9477000C9477000C9477000C94770064
:100040000C9477000C9477000C9477000C94770054
:100050000C9477000C9477000C9477000C94770044
:100060000C9477000C9477000C9477000C94770034
:100070000C9477000C9477000C9477000C94770024
:100080000C9477000C9477000C9477000C94770014
:100090000C9477000C9477000C9477000C94770004
:1000A0000C9477000C9477000C9477000C947700F4
:1000B0000C94770011241FBECFEFD8E0DEBFCDBF78
:1000C00011E0A0E0B1E0E4EBF1E002C005900D9298
:1000D000A230B107D9F721E0A2E0B1E001C01D9242
:1000E000A230B207E1F70E9479000C94D8000C947A
:1000F00000000E94B2000E94C3007894FFCF1F92BC
:100100000F920FB60F9211242F933F934F935F934B
:100110006F937F938F939F93AF93BF93EF93FF93CF
:100120000E94BE008091000190910101019790937F
:10013000010180930001892B21F40E94D5000E94C7
:10014000BC00FF91EF91BF91AF919F918F917F91F3
:100150006F915F914F913F912F910F900FBE0F9034
:100160001F9018958BB18C638BB98AB1837C8AB947
:100170001EB88FE08DB90895729A08959EB181E0FE
:1001800089278EB90895E0E8F0E088E0808384E272
:1001900094EF9093890080938800108284E080938C
:1001A000810082E080936F0008951092810008958D
:0401B000F894FFCFF1
:0201B400050044
:00000001FF
