:100000000C94A70C0C94C40C0C94C40C0C94C40C4D
:100010000C94C40C0C94C40C0C94C40C0C94C40C20
:100020000C94C40C0C94C40C0C94C40C0C9492143A
:100030000C94C40C0C94C40C0C94DC150C94C40CDF
:100040000C94C40C0C94C40C0C94C40C0C94C40CF0
:100050000C94C40C0C94DE140C94C40C0C94C40CBE
:100060000C94C40C0C94C40C0C94C40C0C94C40CD0
:100070000C94C40C0C94C40C0C94C40C0C94C40CC0
:100080000C94C40C0C94C40C0C94C40C0C94C40CB0
:100090000C94C40C0C94C40C0C94C40C0C94C40CA0
:1000A0000C94C40C0C94C40C0C94C40C0C94C40C90
:1000B0000C94C40C0D180E180E180E180E180B18F0
:1000C0000E180E180E180E180E180E180E180E1800
:1000D0000E180E180E180E180E180E1809180E18F5
:1000E0000E180E180E180E180E180E180E180E18E0
:1000F0000E180E180E180E180E180E180E180E18D0
:1001000001180E180E180E180E180E1805180E18D5
:100110000E180E180E180E180E180E1807180E18B6
:100120000E180E180E180E180E180E180E180E189F
:100130000E180E180E180E180E180E180E180E188F
:10014000FF170E180E180E180E180E1803180000C0
:10015000000000000000000000000000000000009F
:10016000000000000000000000000000000000008F
:10017000000000000000000000000000000000007F
:1001800000000000000080038003800380038003E0
:100190008003800380038003800380038003800347
:1001A0008003000000008003800380030000000043
:1001B0000000000000000000380E380E380E380E27
:1001C000380E1004100400000000000000000000C1
:1001D000000000000000000000000000000000001F
:1001E000000000000000000000000000000080315E
:1001F0008031C018C018C018C018FC7FFC7F600C8C
:1002000060063006FE3FFE3F18031803180318036C
:100210008C018C01000000000000000000000003C1
:100220000003C01FF03F70233803380338037803FE
:10023000F003E0038007001F001F003B003B003B72
:10024000003B181BF81FE00F000300030000000034
:100250000000000000003CC06660C330C318C31833
:10026000C30CC30666033C038001C03CC06660C388
:1002700030C318C318C30CC30666033C000000005B
:1002800000000000000000000000E003F007380E4E
:10029000380E380E38067007F001F800FCE0CEE1A9
:1002A000C7E387630767077E0F3E1E3CFC7FF0F3C2
:1002B000000000000000000000000000C001C001BC
:1002C000C001C001C00180008000000000000000EB
:1002D000000000000000000000000000000000001E
:1002E000000000000000000000000000000000000E
:1002F0000018001E000F8003C001E000E000E000D5
:10030000700070007000700070007000700070006D
:10031000E000E000E000C0018003000F001E0018B4
:10032000000000000C003C007800E000C0018003E9
:10033000800380030007000700070007000700078D
:1003400000070007800380038003C001E0007800FD
:100350003C000C00000000000000800380038003CC
:10036000981B7C3E300C4002E007700E381C2004C5
:10037000000000000000000000000000000000007D
:10038000000000000000000000000000000000006D
:100390000000000000000000800180018001800159
:1003A00080018001FE7FFE7F80018001800180014D
:1003B000800180010000000000000000000000003B
:1003C000000000000000000000000000000000002D
:1003D000000000000000000000000000000000001D
:1003E000C003C003C003C003000380038001C0003A
:1003F00000000000000000000000000000000000FD
:1004000000000000000000000000F81FF81F0000BE
:1004100000000000000000000000000000000000DC
:1004200000000000000000000000000000000000CC
:1004300000000000000000000000000000000000BC
:100440000000000000000000C003C003C003C003A0
:10045000000000000000000000000000006000300C
:10046000003000180018000C000C00060006000305
:10047000000380018001C000C00060006000300007
:100480003000180018000C000C00060000000000EE
:100490000000E003F007380E1C1C1C1C0E380E3840
:1004A0000E380E380E380E380E380E380E381C1C2A
:1004B0001C1C380EF007E0030000000000000000E4
:1004C0000000000000000003E003FC038C03800335
:1004D0008003800380038003800380038003800304
:1004E0008003800380038003FC7FFC7F000000000A
:1004F00000000000000000000000F003FC070C0EEC
:10050000001C001C001C001C000E000E00078003D5
:10051000C001E0007000300038001C00FC1FFC1F10
:100520000000000000000000000000000000F003D8
:10053000F80F081E001C001C001C000C0006E00345
:10054000E007000F001E001C001C001C001E080F0E
:10055000F807F803000000000000000000000000A1
:100560000000000E000F800F800FC00EE00E600E26
:10057000300E180E180E0C0E060EFE7FFE7F000EBB
:10058000000E000E000E000E000000000000000033
:10059000000000000000F03FF03FF03F300030006E
:1005A000300030003000F003F00F001E003C003837
:1005B00000380038003C101EF00FF003000000006F
:1005C00000000000000000000000801FE03FF0205D
:1005D0007000380038001C009C0FDC1F7C3C3C780D
:1005E0001C701C701C70387038387038F01FC007D1
:1005F0000000000000000000000000000000F83FC4
:10060000F83FF83F00180018000C000C000600022C
:10061000000380018001C000C00060006000700025
:10062000300030000000000000000000000000006A
:100630000000C007F00F781E381C381C381C780CDE
:10064000F00FE003F00F381F181E1C3C1C381C383C
:100650001C38381CF00FE00700000000000000000C
:10066000000000000000C007F01F381C38381C389C
:100670001C701C701C703C78787CF077E073007004
:1006800000380038001C081EF80FF00300000000BE
:10069000000000000000000000000000000000005A
:1006A00000000000C003C003C003C003000000003E
:1006B0000000000000000000C003C003C003C0032E
:1006C000000000000000000000000000000000002A
:1006D0000000000000000000C003C003C003C0030E
:1006E000000000000000000000000000C003C00384
:1006F000C003C003000380038001C00000000000AD
:100700000000000000000000000000000040007039
:10071000003C000FC003F0003C003C00F000C003B0
:10072000000F003C007000400000000000000000CE
:1007300000000000000000000000000000000000B9
:10074000000000000000FE7FFE7F000000000000AF
:10075000FE7FFE7F0000000000000000000000009F
:100760000000000000000000000000000000000089
:100770000000000002000E003C00F000C003000F6B
:10078000003C003C000FC003F0003C000E000200E3
:100790000000000000000000000000000000F8075A
:1007A000FC1F0C3C0C3800380038001C001E000FE9
:1007B00080078003C001C001C00100000000C0012B
:1007C000C001C001000000000000000000000000A7
:1007D0000000C00FE01F703818301C3E0C318E3105
:1007E000C630C630C638C638C63CC6348EF78CF321
:1007F0001C003808F00FC0070000000000000000D7
:10080000000000000000000000000000C001C00364
:10081000E003600760077006300E380E381C181CA5
:10082000FC3FFC3F0E380E700E7007E00000000029
:1008300000000000000000000000000000000000B8
:10084000FC07FC0F1C1E1C1C1C1C1C0EFC07FC07C0
:100850001C1E1C3C1C381C381C381C3CFC1FFC0794
:100860000000000000000000000000000000000088
:1008700000000000C01FF03F78303C001C000E005C
:100880000E000E000E000E000E001C003C00782032
:10089000F03FC01F0000000000000000000000004A
:1008A0000000000000000000FC07FC0F1C3C1C388E
:1008B0001C781C701C701C701C701C701C701C3808
:1008C0001C381C1EFC0FFC03000000000000000090
:1008D000000000000000000000000000F83FF83FAA
:1008E00038003800380038003800F81FF81F38008A
:1008F0003800380038003800F87FF87F000000002A
:1009000000000000000000000000000000000000E7
:10091000F87FF87F38003800380038003800F83F9A
:10092000F83F380038003800380038003800380008
:1009300000000000000000000000000000000000B7
:1009400000000000C01FF03F78303C001C000E008B
:100950000E000E000E3F0E3F0E381C383C38783823
:10096000F03FC01F00000000000000000000000079
:1009700000000000000000001C381C381C381C3827
:100980001C381C381C38FC3FFC3F1C381C381C38F9
:100990001C381C381C381C38000000000000000007
:1009A000000000000000000000000000FC1FFC1F11
:1009B000C001C001C001C001C001C001C001C0012F
:1009C000C001C001C001C001FC1FFC1F00000000ED
:1009D0000000000000000000000000000000000017
:1009E000F80FF80F000E000E000E000E000E000EA5
:1009F000000E000E000E000E000E0407FC03FC01AA
:100A000000000000000000000000000000000000E6
:100A1000000000001C781C3C1C1E1C0F1C079C03C3
:100A2000DC01FC00DC01DC039C071C0F1C1E1C3CD1
:100A30001C781CF80000000000000000000000000E
:100A400000000000000000003800380038003800C6
:100A500038003800380038003800380038003800D6
:100A600038003800F83FF83F0000000000000000A8
:100A70000000000000000000000000000E381E3CD6
:100A80001E3C1E3C363636363636663266336633A4
:100A9000C631C631C63106300630063000000000CF
:100AA0000000000000000000000000000000000046
:100AB0001C301C303C307C307C30FC30EC31CC3194
:100AC000CC338C370C3F0C3E0C3E0C3C0C380C38B5
:100AD0000000000000000000000000000000000016
:100AE00000000000E007F00F381C1C381C380E70A6
:100AF0000E700E700E700E700E701C381C38381C84
:100B0000F00FE007000000000000000000000000FF
:100B10000000000000000000F81FF83F387838702F
:100B2000387038703878383CF81FF80738003800CB
:100B300038003800380038000000000000000000D5
:100B4000000000000000000000000000E007F00FBF
:100B5000381C1C381C380E700E700E700E700E7023
:100B60000E701C381C38381CF00FE007001E00788F
:100B700000F0004000000000000000000000000045
:100B8000FC07FC0F1C1E1C1C1C1C1C1C1C0EFC0748
:100B9000FC039C071C071C0F1C1E1C3C1C381C78EB
:100BA0000000000000000000000000000000000045
:100BB00000000000E00FF81F3C181C001C003C0067
:100BC000F800F007C01F003E0038003800380C1C49
:100BD000FC1FF00700000000000000000000000003
:100BE0000000000000000000FF7FFF7FC001C00187
:100BF000C001C001C001C001C001C001C001C001ED
:100C0000C001C001C001C0010000000000000000E0
:100C10000000000000000000000000001C701C70BC
:100C20001C701C701C701C701C701C701C701C7064
:100C30001C701C703C783838F01FE00F000000007A
:100C400000000000000000000000000000000000A4
:100C500007E00E700E701C701C383C383838381C99
:100C6000701C700CE00EE00EE007C007C0078003A8
:100C70000000000000000000000000000000000074
:100C80000000000003C003C007C08661C663C663DE
:100C9000C663C6634E766C366C366C362C3E3C3C76
:100CA0003C1C3C1C00000000000000000000000094
:100CB00000000000000000001EE03C707838781C46
:100CC000F00EE007C003C003C007E007600F301E4E
:100CD000183C1C380E7807F00000000000000000EF
:100CE00000000000000000000000000007E00E709F
:100CF0001C301C18381C780E7007E003E003C0019C
:100D0000C001C001C001C001C001C001000000005D
:100D100000000000000000000000000000000000D3
:100D2000FC3FFC3F0038001C000E000780038001E0
:100D3000C000E000700038001C000E00FE3FFE3FC7
:100D4000000000000000000000000000C03FC03FA5
:100D5000C001C001C001C001C001C001C001C0018B
:100D6000C001C001C001C001C001C001C001C0017B
:100D7000C001C001C001C001C03FC03F0000000071
:100D800006000C000C001800180030003000600055
:100D90006000C000C0008001800100030003000665
:100DA0000006000C000C0018001800300030006035
:100DB00000000000FC03FC03800380038003800329
:100DC000800380038003800380038003800380030B
:100DD00080038003800380038003800380038003FB
:100DE000FC03FC0300000000000000010001800380
:100DF0008003C003C006E006600C300C30181818E1
:100E000018180C300C3006600000000000000000D4
:100E100000000000000000000000000000000000D2
:100E200000000000000000000000000000000000C2
:100E300000000000000000000000000000000000B2
:100E400000000000FFFFFFFF000000000000C001E5
:100E50008003000700000000000000000000000008
:100E60000000000000000000000000000000000082
:100E70000000000000000000000000000000000072
:100E80000000000000000000000000000000000062
:100E9000E007F80F181E001C001CE01FF01F381C94
:100EA0001C1C1C1C1C1C3C1EF87BF0780000000065
:100EB00000000000000000001C001C001C001C00C2
:100EC0001C001C009C07DC1F7C1C3C381C381C3898
:100ED0001C381C381C381C381C1C3C1EFC0FCC0752
:100EE0000000000000000000000000000000000002
:100EF0000000000000000000C01FF03F7820380014
:100F00001C001C001C001C001C003C003800F820C9
:100F1000F03FC01F000000000000000000000000C3
:100F2000007000700070007000700070C073F07F7F
:100F3000787C38701C701C701C701C701C701C70CD
:100F40003C78387CF077E07300000000000000007F
:100F50000000000000000000000000000000000091
:100F6000C007F00F781C38381C381C38FC3FFC3F99
:100F70001C001C0038007820F03FC01F000000005B
:100F8000000000000000000000FF80FFC003C0015F
:100F9000C001C001FC7FFC7FC001C001C001C001D5
:100FA000C001C001C001C001C001C001C001C00139
:100FB0000000000000000000000000000000000031
:100FC0000000000000000000C073F07F787C3870E3
:100FD0001C701C701C701C701C701C703C78387C61
:100FE000F077E07300700038183CF81FF00700003D
:100FF0001C001C001C001C001C001C001C0FDC1F23
:101000007C3C3C381C381C381C381C381C381C38BC
:101010001C381C381C381C38000000000000000080
:101020000000000080038003800300000000000037
:10103000FC03FC03800380038003800380038003A0
:10104000800380038003800380038003000000008E
:101050000000000000000000000E000E000E000066
:1010600000000000F80FF80F000E000E000E000E3A
:10107000000E000E000E000E000E000E000E000E00
:10108000000E000E0407FC07F801000038003800CD
:101090003800380038003800383C381E380E380F19
:1010A000B807B803F803B803B807380F380E381E6E
:1010B000383C38780000000000000000000000000C
:1010C000F807F807000700070007000700070007F8
:1010D00000070007000700070007000700070007D8
:1010E00000070007000700070000000000000000E4
:1010F00000000000000000000000000000000000F0
:10110000CE31EE79FE7F9E779E738E738E738E73D3
:101110008E738E738E738E738E738E7300000000C9
:1011200000000000000000000000000000000000BF
:10113000000000001C0FDC1F7C3C3C381C381C38B5
:101140001C381C381C381C381C381C381C381C38FF
:10115000000000000000000000000000000000008F
:101160000000000000000000E003F80F3C1E1C1C03
:101170000E380E380E380E380E380E381C1C3C1E39
:10118000F80FE00300000000000000000000000075
:101190000000000000000000000000009C07DC1FB1
:1011A0007C1C3C381C381C381C381C381C381C383B
:1011B0001C1C3C1EFC0F9C071C001C001C001C007F
:1011C0001C00000000000000000000000000000003
:1011D000E039F83F3C3E1C380E380E380E380E38D9
:1011E0000E380E381E3C1C3EF83BF03800380038F4
:1011F0000038003800380000000000000000000047
:1012000000000000703E703FF031F0307000700060
:10121000700070007000700070007000700070004E
:1012200000000000000000000000000000000000BE
:101230000000000000000000E00FF01F78103800F0
:101240003800F801F007801F003C00380038183CD7
:10125000F81FF00700000000000000000000000080
:101260000000000000000000E000E000FC3FFC3F48
:10127000E000E000E000E000E000E000E000E0006E
:10128000E000E001C03F803F0000000000000000DF
:10129000000000000000000000000000000000004E
:1012A0001C381C381C381C381C381C381C381C389E
:1012B0001C381C381C3C3C3EF83BF0380000000059
:1012C000000000000000000000000000000000001E
:1012D000000000001E701C381C383C383818381CC0
:1012E000701C700CE00EE00EE006C007C007800323
:1012F00000000000000000000000000000000000EE
:10130000000000000000000003C087C38743C663DD
:10131000C66346626E666E266C362C363C3C3C3CA0
:101320003C1C181C00000000000000000000000031
:101330000000000000000000000000001E303C180B
:10134000780C700EF006E003C003C003E007700FD6
:10135000300E381E1C3C0E7800000000000000001B
:10136000000000000000000000000000000000007D
:101370001E701C301C383818381C781C700EF00E8B
:10138000E007E007C003C003C0018001C001C00046
:10139000E0007C003C0000000000000000000000B5
:1013A00000000000FC3FFC3F0038001C000E00075E
:1013B0008003C001E000700038001C00FC3FFC3FCF
:1013C000000000000000000000000000001F801F5F
:1013D000C003C001C001C0018003800380038003FB
:1013E000C001F800F800C00180038003800380037F
:1013F000C001C001C001C003801F001F0000000029
:1014000080018001800180018001800180018001D4
:1014100080018001800180018001800180018001C4
:1014200080018001800180018001800180018001B4
:10143000000000007C00FC00E001C001C001C00110
:10144000E000E000E000E000C001800F800FC0017C
:10145000E000E000E000E000C001C001C001E001E8
:10146000FC007C0000000000000000000000000004
:101470000000000000000000000000000000786094
:10148000FC63C63F061E00000000000000000000D4
:10149000000000000000000000000000000000004C
:1014A00000000000F80F08080808080808080808E5
:1014B00008080808080808080808080808080808AC
:1014C0000808F80F00000000000000000000000005
:1014D00000000000000000000000000C1E1E1E0C9A
:1014E0000C000C0C00000066666624000000000082
:1014F00000000036367F3636367F363600000C0C5C
:101500003E03031E30301F0C0C0000000023331874
:101510000C0633310000000E1B1B0E5F7B333B6E4D
:101520000000000C0C0C0600000000000000003061
:10153000180C0606060C1830000000060C18303097
:1015400030180C060000000000663CFF3C660000FE
:10155000000000000018187E1818000000000000AD
:101560000000000000001C1C060000000000007FBE
:1015700000000000000000000000000000001C1C33
:1015800000000000406030180C0603010000003E1F
:1015900063737B6B6F67633E000000080C0F0C0CDD
:1015A0000C0C0C3F0000001E333330180C06333F88
:1015B0000000001E3330301C3030331E000000307D
:1015C000383C36337F3030780000003F0303031F80
:1015D0003030331E0000001C0603031F3333331E5C
:1015E0000000007F63636030180C0C0C0000001ECC
:1015F0003333331E3333331E0000001E3333333E88
:1016000018180C0E00000000001C1C00001C1C0020
:1016100000000000001C1C00001C1C180C00003006
:10162000180C0603060C18300000000000007E00B5
:101630007E000000000000060C18306030180C0618
:101640000000001E3330180C0C000C0C0000003E93
:1016500063637B7B7B03033E0000000C1E3333334C
:101660003F3333330000003F6666663E6666663F82
:101670000000003C666303030363663C0000001F38
:10168000366666666666361F0000007F4606263EA2
:101690002606467F0000007F6646263E2606060F89
:1016A0000000003C666303037363667C0000003344
:1016B0003333333F333333330000001E0C0C0C0C38
:1016C0000C0C0C1E00000078303030303333331EE9
:1016D000000000676636361E363666670000000F6B
:1016E000060606064666667F00000063777F7F6B0E
:1016F000636363630000006363676F7F7B7363638F
:101700000000001C366363636363361C0000003F07
:101710006666663E0606060F0000001C36636363BD
:10172000737B3E307800003F6666663E36666667CD
:101730000000001E3333030E1833331E0000003F39
:101740002D0C0C0C0C0C0C1E000000333333333307
:101750003333331E000000333333333333331E0C43
:10176000000000636363636B6B3636360000003342
:1017700033331E0C1E333333000000333333331E38
:101780000C0C0C1E0000007F7319180C0646637FBA
:101790000000003C0C0C0C0C0C0C0C3C000000007D
:1017A0000103060C183060400000003C303030303F
:1017B0003030303C0000081C3663000000000000A0
:1017C000000000000000000000000000FF000C0C02
:1017D00018000000000000000000000000001E30A3
:1017E0003E33336E0000000706063E666666663BC3
:1017F0000000000000001E330303331E0000003809
:1018000030303E333333336E0000000000001E33AF
:101810003F03331E0000001C3606061F0606060F97
:101820000000000000006E3333333E30331E0007EB
:101830000606366E666666670000001818001E18F9
:101840001818187E0000003030003C303030303343
:10185000331E0007060666361E3666670000001E49
:10186000181818181818187E0000000000003F6BA8
:101870006B6B6B630000000000001F3333333333A6
:101880000000000000001E333333331E0000000050
:1018900000003B666666663E060F000000006E3381
:1018A0003333333E30780000000037766E06060F83
:1018B0000000000000001E330618331E0000000068
:1018C00004063F060606361C000000000000333305
:1018D0003333336E000000000000333333331E0C0B
:1018E00000000000000063636B6B363600000000F0
:1018F000000063361C1C36630000000000006666B2
:1019000066663C30180F000000003F311806233F88
:10191000000000380C0C0603060C0C380000001800
:101920001818180018181818000000070C0C1830A8
:10193000180C0C07000000CE5B73000000000000D4
:101940000000000000081C3663637F0000001124C3
:101950001FBECFEFD8E0DEBFCDBF12E0A0E0B1E008
:10196000E6EAF2E402C005900D92AE3FB107D9F766
:1019700023E0AEEFB2E001C01D92A336B207E1F75B
:101980000E9476140C9451210C940000EAE7F0E0D8
:101990008081806480830895ECE7F0E0808180643A
:1019A0008083EAE7F0E080818068808380818860BE
:1019B0008083808187608083EEE7F0E080818160B2
:1019C00080830E94C60C0895EAE7F0E080818F775B
:1019D0008083EEE7F0E080818E7F808308956091C0
:1019E000040370910503072E000C880B990B0E94CD
:1019F000051D23E333E343E550E40E94911D20E0FD
:101A000030EC4FE754E40E945B1C20E030E040E201
:101A100051E40E94911D6093100370931103809311
:101A20001203909313030E94CD1C70930F036093D5
:101A30000E030895EF92FF920F931F93CF93DF93BE
:101A400081EF92E00E94841680EE97E00E94C51715
:101A500080E090E00E94CC1742E151E062E370E048
:101A60008EE190E00E94471B4FE151E066E470E098
:101A70008EE190E00E94471B4CE251E06AE570E085
:101A80008EE190E00E94471B49E351E06EE670E072
:101A90008EE190E00E94471B0FEF1FEF2CE830E033
:101AA00042E850E06CE870E08EE190E00E94F016B1
:101AB00020EA30E042E850E060EA70E08EE190E039
:101AC0000E94F01620EA30E04EE150E06CE870E051
:101AD0008EE190E00E94F01620EA30E042E850E00B
:101AE0006CE870E082E890E00E94F01624EB30E0B1
:101AF00042E850E064EB70E08EE190E00E94F01666
:101B000028EC30E042E850E068EC70E08EE190E0D4
:101B10000E94F01628EC30E04EE150E064EB70E0FB
:101B20008EE190E00E94F01628EC30E042E850E0B0
:101B300064EB70E082E890E00E94F01628EC30E060
:101B400046E950E066E970E086E990E00E94F01610
:101B500028EC30E044EB50E066E970E084EB90E084
:101B60000E94F01628EC30E044EB50E068EC70E0A6
:101B700086E990E00E94F01620EA30E04EEB50E05B
:101B800060EA70E084EB90E00E94F01624EB30E015
:101B90004EEB50E060EA70E08EEB90E00E94F016B1
:101BA00024EB30E04EEB50E064EB70E084EB90E02F
:101BB0000E94F01681EF92E00E94841680EE97E07A
:101BC0000E94C51780E090E00E94CC1745E451E0E8
:101BD0006BE970E088EC90E00E94471B8FEF9FEF6D
:101BE0000E94C5174AE451E06AEA70E088EC90E090
:101BF0000E94471B46E551E069EB70E088EC90E0FD
:101C00000E94471B2CE830E046E950E06AE570E0AE
:101C100086E990E00E94F0162CE830E044EB50E0BA
:101C20006AE570E084EB90E00E94F0162CE830E06A
:101C300044EB50E06CE870E086E990E00E94F0161A
:101C400024E630E04EEB50E064E670E084EB90E098
:101C50000E94F01628E730E04EEB50E064E670E0BA
:101C60008EEB90E00E94F01628E730E04EEB50E05B
:101C700068E770E084EB90E00E94F01681EF92E05C
:101C80000E94841680EE97E00E94C51780E090E0E5
:101C90000E94CC1744E651E06FE570E088EC90E0DC
:101CA0000E94471B8FEF9FEF0E94C5174BE651E044
:101CB0006EE670E088EC90E00E94471B46E751E03A
:101CC0006DE770E088EC90E00E94471B20E530E073
:101CD00046E950E06EE170E086E990E00E94F0167F
:101CE00020E530E044EB50E06EE170E084EB90E002
:101CF0000E94F01620E530E044EB50E060E570E033
:101D000086E990E00E94F01628E230E04EEB50E0C9
:101D100068E270E084EB90E00E94F0162CE330E083
:101D20004EEB50E068E270E08EEB90E00E94F0161F
:101D30002CE330E04EEB50E06CE370E084EB90E09D
:101D40000E94F01681EF92E00E94841680EE97E0E8
:101D50000E94C51780E090E00E94CC1744E851E053
:101D600063E270E088EC90E00E94471B8FEF9FEFEA
:101D70000E94C5174AE451E062E370E088EC90E00D
:101D80000E94471B43E951E061E470E088EC90E079
:101D90000E94471BC7ECD0E0EC2EFD2EC13AD105C6
:101DA00054F00CE215EF9E0147E950E0BE0183EBD1
:101DB00090E00E94F016CE0185569109879760F455
:101DC00004E21DED2E2D3F2D47E950E06E2D7F2DB5
:101DD00083EB90E00E94F016CE01875991098A307A
:101DE000910538F0CC968A30910518F0CC960A9778
:101DF00060F40FEF1FEF2E2D3F2D47E950E06E2DC1
:101E00007F2D83EB90E00E94F0162197CD31D10514
:101E100019F6DF91CF911F910F91FF90EF900895E8
:101E20000F931F93CF93DF930E941B1484EE92E0D5
:101E30000E94841680EE97E00E94C51780E090E033
:101E40000E94CC1741EA51E062E370E08EE190E03D
:101E50000E94471B4BEA51E066E470E08EE190E09F
:101E60000E94471B47EB51E06AE570E08EE190E08D
:101E70000E94471B81EF92E00E9484164FEB51E0D5
:101E800062E870E087E890E00E94471B4CEC51E06C
:101E900061E970E087E890E00E94471B4AED51E05D
:101EA00060EA70E087E890E00E94471B4BEE51E04B
:101EB0006FEA70E087E890E00E94471B83ED90E3B3
:101EC0000197F1F700C000000FEF1FEF2CED30E09D
:101ED0004EE150E06CE870E08EE190E00E94F01678
:101EE0002CED30E04AE550E06CE870E08AE590E0E7
:101EF0000E94F0162CED30E04AE550E06CED70E009
:101F00008EE190E00E94F01620EA30E04EE650E0CC
:101F100060EA70E08AE590E00E94F0162EEB30E077
:101F20004EE650E06EEB70E08AE590E00E94F0161D
:101F30002EEB30E04EE650E060EA70E08EE690E096
:101F40000E94F016CBEDD0E00CE215EF9E0149E5C2
:101F500050E0BE018FE190E00E94F0169FED22E27A
:101F600082E0915020408040E1F700C000002197BE
:101F7000C539D10549F7C6E9D0E00EE317EE9E0159
:101F800049E550E0BE018FE190E00E94F0169FED20
:101F900022E282E0915020408040E1F700C0000042
:101FA0002197CC38D10549F7DF91CF911F910F913F
:101FB0000895CF92DF92EF92FF920F931F93CF93EA
:101FC000DF93CDB7DEB764970FB6F894DEBF0FBED0
:101FD000CDBF0E941B140E941A0D809109038F939C
:101FE000809108038F9389EF91E09F938F938E01E7
:101FF0000F5F1F4F1F930F930E94671E8FEF9FEF7E
:102000000E94C517A80169EB70E083E290E00E948E
:10201000471B0F900F900F900F900F900F9002E0C2
:1020200012E0CE0101967C01C82EDF2C80910703BF
:102030008F93809106038F931F930F93FF92EF92DC
:102040000E94671E8FEF9FEF0E94C5174C2D5D2DDC
:1020500061E970E083E290E00E94471B0E946A15EC
:102060000E949D150F900F900F900F900F900F9062
:10207000833089F118F4823031F0D8CF843071F098
:102080008530B1F0D3CF109207031092060310925F
:102090000903109208030E94D90FC8CF809106034C
:1020A0009091070301969093070380930603BECF98
:1020B00080910603909107039C01215031092AF475
:1020C0001092070310920603B1CF01979093070374
:1020D00080930603ABCF64960FB6F894DEBF0FBEB5
:1020E000CDBFDF91CF911F910F91FF90EF90DF90C7
:1020F000CF900895CF92DF92EF92FF920F931F93AC
:10210000CF93DF93CDB7DEB764970FB6F894DEBFF9
:102110000FBECDBF0E941B140E941A0D80910703B1
:102120008F93809106038F9382E092E09F938F9329
:102130008E010F5F1F4F1F930F930E94671E8FEF3B
:102140009FEF0E94C517A80161E970E083E290E06B
:102150000E94471B0F900F900F900F900F900F90C1
:1021600009EF11E0CE0101967C01C82EDF2C809191
:1021700009038F93809108038F931F930F93FF920E
:10218000EF920E94671E8FEF9FEF0E94C5174C2DA4
:102190005D2D69EB70E083E290E00E94471B0E9496
:1021A0006A150E949D150F900F900F900F900F9041
:1021B0000F908330A1F018F4823031F0D8CF843002
:1021C00089F08530C9F0D3CF10920703109206032F
:1021D00010920903109208030E94D90FC8CF0E94E1
:1021E00021161DC0809108039091090301969093D8
:1021F000090380930803BBCF8091080390910903E2
:102200009C01215031092AF410920903109208030D
:10221000AECF01979093090380930803A8CF6496EB
:102220000FB6F894DEBF0FBECDBFDF91CF911F91E7
:102230000F91FF90EF90DF90CF9008958F929F9233
:10224000AF92BF92CF92DF92EF92FF920F931F93C4
:10225000CF93DF93CDB7DEB764970FB6F894DEBFA8
:102260000FBECDBF60910A0370910B0380910C03E8
:1022700090910D0320E831E541E050E00E94201EDE
:102280004B015C015F934F933F932F9382E092E069
:102290009F938F938E010F5F1F4F1F930F930E9489
:1022A000671E8FEF9FEF0E94C517A80166E470E0DC
:1022B00083E290E00E94471B0F2EF4E1FF2EF02DE9
:1022C000F8018F2D11928A95E9F7C501B40120E13B
:1022D0003EE040E050E00E94201E4B015C015F9315
:1022E0004F933F932F938BE092E09F938F931F9395
:1022F0000F930E94671E8FEF9FEF0E94C517A801E2
:1023000064E670E083E290E00E94471BF8018F2DA5
:1023100011928A95E9F7C501B4012CE330E040E061
:1023200050E00E94201EE62ED72EC82EB92E5F93B5
:102330004F933F932F9385E192E09F938F931F9349
:102340000F930E94671E8FEF9FEF0E94C517A80191
:1023500062E870E083E290E00E94471BF8018F2D55
:1023600011928A95E9F7BF92CF92DF92EF928EE1B8
:1023700092E09F938F931F930F930E94671E0FB657
:10238000F894DEBF0FBECDBF8FEF9FEF0E94C51741
:10239000A80160EA70E083E290E00E94471BF80128
:1023A0008F2D11928A95E9F7809109038F9380917F
:1023B00008038F9386E292E09F938F931F930F936E
:1023C0000E94671E8FEF9FEF0E94C517A8016AE069
:1023D00070E083E290E00E94471BF8018F2D11927C
:1023E0008A95E9F780910F038F9380910E038F9365
:1023F0008DE392E09F938F931F930F930E94671E2C
:102400008FEF9FEF0E94C517A80168E270E083E29A
:1024100090E00E94471BF8011192FA94E9F781EFCE
:1024200092E00E94841680EE97E00E94C51780E03B
:1024300090E00E94CC174AE552E066E470E08AEA38
:1024400090E00E94471B47E652E065E570E08AEAAB
:1024500090E00E94471B48E752E064E670E08AEA99
:1024600090E00E94471B49E852E063E770E08AEA87
:1024700090E00E94471B45E952E062E870E08AEA7A
:1024800090E00E94471B40EA52E061E970E08AEA6E
:1024900090E00E94471B4BEA52E060EA70E08AEA53
:1024A00090E00E94471B81EF92E00E94841680E03A
:1024B00098EF0E94C51780E090E00E94CC174AEB8D
:1024C00052E068EC70E083E290E00E94471B0FB698
:1024D000F894DEBF0FBECDBF64960FB6F894DEBF92
:1024E0000FBECDBFDF91CF911F910F91FF90EF9065
:1024F000DF90CF90BF90AF909F908F900895CF9333
:10250000DF9300D0CDB7DEB789831A82CE01019662
:102510000E94B41B80E090E00F900F90DF91CF916C
:102520000895239A24982C98259A229A209A579AAB
:1025300080E58CBD81E08DBD08958EBD0DB407FE94
:10254000FDCF8EB5089528982A980E949D122A9A48
:102550000895289A2A980E949D122A9A0895CF9346
:10256000C82F86E30E94A3128C2F837080931403DC
:102570008130B1F028F0823019F1833089F13FC009
:1025800088E40E94A91280EF90E09093110180935B
:10259000100180E491E090930F0180930E012FC011
:1025A00088E20E94A91280E491E090931101809347
:1025B000100180EF90E090930F0180930E011FC0F7
:1025C00088E80E94A91280EF90E090931101809317
:1025D000100180E491E090930F0180930E010FC0F1
:1025E00088EE0E94A91280E491E0909311018093FB
:1025F000100180EF90E090930F0180930E01CF9136
:1026000008955F980E949112569A5F9A8FE19EE416
:102610000197F1F700C000005F989FEF29EF80E07D
:10262000915020408040E1F700C000005F9A9FEF8A
:1026300022E587E0915020408040E1F700C0000093
:1026400083E00E94AF128AE30E94A31285E50E94F4
:10265000A91281E10E94A3129FEF2BED85E091501A
:1026600020408040E1F700C0000089E20E94A312F0
:102670005E980895CF92DF92EF92FF920F931F938F
:10268000CF93DF93D82EC92E162F072FF42EE52EC9
:10269000C22FD32F8AE20E94A3128C2D0E94A9126E
:1026A0008D2D0E94A9128E2D0E94A9128F2D0E949D
:1026B000A9128BE20E94A312802F0E94A912812FDF
:1026C0000E94A9128D2F0E94A9128C2F0E94A9127C
:1026D0008CE20E94A312DF91CF911F910F91FF9086
:1026E000EF90DF90CF9008950E943A130895CF9312
:1026F000C82F289A2A98892F0E949D128C2F0E94F9
:102700009D122A9ACF9108950E9477130895CF932E
:10271000DF9399231CF12091100130911101821750
:102720009307E0F47723D4F020910E0130910F014C
:102730006217730798F4D52FC42F9B012F5F3F4F6B
:10274000AC014F5F5F4F0E943A13289A2A988D2F51
:102750000E949D128C2F0E949D122A9ADF91CF9188
:1027600008950E9487130895CF92DF92EF92FF920F
:102770000F931F93CF93DF936A017901209110018A
:10278000309111018217930708F040C040910E016B
:1027900050910F0164177507C8F5FC01EC0DFD1D84
:1027A0003197E217F30718F06901C81AD90A9B019B
:1027B0002E0D3F1D215031092417350718F07A01DD
:1027C000E61AF70A9701260F371F21503109A60193
:1027D000480F591F415051090E943A13289A2A98CC
:1027E0001E141F0494F40DC0E601812F0E949D1257
:1027F000802F0E949D122197C1F781E0E81AF1080D
:1028000021F01C141D0484F3F8CF2A9ADF91CF9194
:102810001F910F91FF90EF90DF90CF9008950F934D
:102820001F93261B370B481B590B0E94B41380E0E3
:102830001F910F9108950F931F930E940113569AB1
:102840005E9820910E0130910F014091100150913E
:10285000110161EB73E185E193E00E9434166FE0B2
:1028600074E181E00E94301C64E773E182E00E9421
:10287000301C64E873E183E00E94301C81E00E9418
:10288000441C82E00E94441C83E00E94441C00E03F
:1028900010E020EF30E040E451E060E070E080E0E4
:1028A00090E00E94B41381EF92E00E9484168FEFB3
:1028B0009FEF0E94C51780E090E00E94BE178FEF47
:1028C0009FEF0E94B7172EEE30E04EE351E061E03B
:1028D00070E081E090E00E94AA1780E091E0909380
:1028E000600380935F031F910F9108951092070377
:1028F0001092060310920903109208030E946015BB
:1029000078940E94100F0E94D90F0E947A100E94A2
:1029100006160E941B140E94CC0C0E94D5150E9422
:102920001E11FFCF1F920F920FB60F9211242F93FB
:102930003F934F935F936F937F938F939F93AF9347
:10294000BF93EF93FF9380910A0390910B03A091A3
:102950000C03B0910D030197A105B105B1F00E94E0
:102960001E1180910A0390910B03A0910C03B0916A
:102970000D030197A109B10980930A0390930B03FA
:10298000A0930C03B0930D0308C00E941E160E9472
:10299000E40C0E94CC150E947614FF91EF91BF9138
:1029A000AF919F918F917F916F915F914F913F91E7
:1029B0002F910F900FBE0F901F9018951F920F929E
:1029C0000FB60F9211242F933F934F935F936F9302
:1029D0007F938F939F93AF93BF93EF93FF938091D8
:1029E00078009091790090930503809304030E94EE
:1029F000EF0C20910E0330910F038091080390910A
:102A00000903821793071CF51092A9001092A800E1
:102A100080910E0390910F032091080330910903D8
:102A2000821B930B4CEC489F9001499F300D112461
:102A3000211584E038073CF08FEF93E090939900E4
:102A40008093980004C030939900209398002091BF
:102A50000E0330910F03809108039091090328170A
:102A60003907DCF4821B930B4CEC489F9001499F83
:102A7000300D1124211584E038073CF08FEF93E0EE
:102A80009093A9008093A80004C03093A9002093DC
:102A9000A80010929900109298000E94C60CFF9115
:102AA000EF91BF91AF919F918F917F916F915F91C6
:102AB0004F913F912F910F900FBE0F901F9018953F
:102AC0008BB18C638BB98AB1837C8AB91EB88FE0D5
:102AD0008DB9089589B1869586958F7090E0AC0187
:102AE000409550952091FE023091FF02242335231A
:102AF00020FF06C042E050E05093010340930003E2
:102B000021FF06C043E050E05093010340930003CF
:102B100022FF06C044E050E05093010340930003BD
:102B200023FF06C025E030E030930103209300032B
:102B30009093FF028093FE0208958091000310920B
:102B400001031092000308958BB18C7F8BB9509ACA
:102B5000519A0895E0EAF0E0808180688083808166
:102B600083608083E1EAF0E080818083108280814D
:102B7000826080830895E0E9F0E08081806880834E
:102B8000808183608083E1E9F0E08081808310822E
:102B90008081826080830895E1EAF0E08081808313
:102BA000E1E9F0E08081808308950E94A4150E94ED
:102BB000AA150E94BB1508951F920F920FB60F928F
:102BC00011248F939F93AF93BF938091590390915A
:102BD0005A03A0915B03B0915C030196A11DB11D46
:102BE0008093590390935A03A0935B03B0935C03C3
:102BF00080915803816080935803BF91AF919F915A
:102C00008F910F900FBE0F901F901895E0E8F0E0A5
:102C100080818860808384E294EF90938900809320
:102C2000880080818083E1E8F0E080818460808397
:102C3000EFE6F0E080818260808308951092810049
:102C40000895A0910603B091070320E831E541E023
:102C500050E00E945F1E60930A0370930B03809301
:102C60000C0390930D030895FC01718360835383DB
:102C700042833583248384E090E0968B858B908F0C
:102C8000878B45505109528F418F25503109348F20
:102C9000238F528B418B348B238B81E086A787A7B0
:102CA00012A211A217A216A215A214A211A610A672
:102CB00013A612A615A614A68DE59CE595AB84ABCC
:102CC0008FEF9FEF91AB80AB13AA12AA14861386E5
:102CD00016861586108A178610AE17AA11AE13AE87
:102CE00012AE14AE16AE15AE17AEDF01A05CBF4F2C
:102CF00011961C921E9212961C92F0930303E0937D
:102D0000020381E090E00895FC01A0910203B091DC
:102D100003039DE0919601900D929A95E1F7089535
:102D20008F929F92AF92BF92CF92DF92EF92FF92DB
:102D30000F931F93CF93DF935C01EB017A0149015D
:102D40006801481759072CF4982F8B2D5A01E92E4A
:102D5000F82E8C169D067CF59C2F8D2FE401892E74
:102D6000982E29C08C169D0614F52DC002ACF3AD2B
:102D7000E02D86019401A701BE01C50109958111CD
:102D8000F1CF21C08501E0910203F091030301908E
:102D9000F081E02DA601BE01C80109950F5F1F4F0C
:102DA000E016F10684F721968C169D0664F0EA146D
:102DB000FB0444F7F8CFE0910203F091030384ADE4
:102DC00081FFF5CFD3CFDF91CF911F910F91FF906E
:102DD000EF90DF90CF90BF90AF909F908F9008952D
:102DE0002F923F924F925F926F927F928F929F921B
:102DF000AF92BF92CF92DF92EF92FF920F931F9309
:102E0000CF93DF93EC017B015A0169011801E09136
:102E10000203F091030381AD81FF08C007A8F0AD64
:102E2000E02DCE010995882309F481C0A5014C1B32
:102E30005D0B96012E193F096A01552324F4CC2419
:102E4000DD24C41AD50A8901332324F4002711276D
:102E5000021B130B1416150624F066246A94762CB4
:102E600003C066246394712C1216130624F0882480
:102E70008A94982C03C088248394912CE0910203B7
:102E8000F09103030190F081E02DA101B701CE0183
:102E90000995C016D10624F4101611063CF147C05E
:102EA0001C141D040CF043C05601B594A794412C8A
:102EB000512CA00EB11EAC14BD0424F0AC18BD08FA
:102EC000E80CF91CC60DD71DE0910203F091030335
:102ED0000190F081E02DA101B701CE0109958FEF9E
:102EE000481A580AC414D50421F721C05801B594D2
:102EF000A794412C512CAC0CBD1CA016B10624F09B
:102F0000A01AB10AC60DD71DE80CF91CE091020306
:102F1000F09103030190F081E02DA101B701CE01F2
:102F200009958FEF481A580A0415150521F7DF9106
:102F3000CF911F910F91FF90EF90DF90CF90BF90B6
:102F4000AF909F908F907F906F905F904F903F9049
:102F50002F900895E0910203F0910303968B858BE7
:102F6000708F678B528F418F348F238F0895E0913C
:102F70000203F0910303968F858F0895E091020379
:102F8000F091030390A3878F0895E0910203F091DD
:102F9000030391AB80AB0895E0910203F09103032A
:102FA00093AB82AB08952F923F924F925F926F92B4
:102FB0007F928F929F92AF92BF92CF92DF92EF92C9
:102FC000FF920F931F93CF93DF93CDB7DEB7689730
:102FD0000FB6F894DEBF0FBECDBF788B6F874A0166
:102FE000690138011701482F50E0FA01E05BF1094F
:102FF000ED34F10598F4E65AFF4F0C943F1E84E936
:103000000DC089E90BC081E809C08AE907C084E8DE
:1030100005C08EE803C086EE01C088EF282F30E09F
:103020003A832983D10117968D919C91189728177F
:10303000390708F401C319962D913C911A97E9813B
:10304000FA812E173F0708F4F7C213962D913C9191
:1030500014972115310509F4EFC2A901569547953A
:1030600056954795569547955E874D87A9014770B8
:103070005527452B31F06D857E856F5F7F4F7E87AD
:103080006D87D1011B966D917C911C97611571051F
:1030900069F049815A81481B590BFB01E40FF51F68
:1030A0004081E42FF0E0FA8BE98B02C03A8B298B48
:1030B000E0910203F091030347AD41FF54C1DF01EA
:1030C000AE5BBF4F4C9141FF4EC1D10115962D9182
:1030D0003C911697280D391D215031094F8558898B
:1030E0004150510969897A89460F571F05ACF6ADE1
:1030F000E02DB4018F8598890995E0910203F09144
:103100000303E05CFF4F40805180D10112968C9107
:103110001297811191C015968D919C9116971796D3
:103120002D913C911897E981FA81E21BF30BE89FFE
:10313000A001E99F500DF89F500D11246D857E85EB
:10314000469F9001479F300D569F300D1124A901D5
:1031500060E070E049835A836B837C83892B09F09C
:103160004BC06AC2D101ED91FC91E00FF11F949028
:10317000A114B104E9F0F5013897F88BEF8790FEC0
:1031800004C0C601F201099503C0C301F20109950B
:103190009694F1E0AF1AB1082F8538892A153B05BE
:1031A00021F0A114B10459F703C04F8558895A0181
:1031B0000F5F1F4F0E151F05A9F669817A818B815C
:1031C0009C8129853A854B855C85620F731F841F1E
:1031D000951F69837A838B839C834D815E814F5FCA
:1031E0005F4F5E834D83D10115968D919C9116970B
:1031F00048175907A0F020C2812C912C8D859E85FF
:103200000197A0E0B0E09C01AD012F5F3F4F4F4F11
:103210005F4F29873A874B875C879E828D824D85D9
:103220005E8541155105C9F209811A817A01E00EC6
:10323000F11EA988BA8896CF813009F0FDC1D1016D
:1032400015968D919C91169717962D913C911897F4
:10325000E981FA81E21BF30B13964D915C9114976F
:10326000849F9001859F300D949F300D1124E29F23
:103270004001E39F900CF29F900C1124A12CB12CE3
:10328000892B09F04EC0D8C1D101ED91FC9129855F
:103290003A85E20FF31F849190E09801281B390BC7
:1032A000E29EA001E39E500DF29E500D1124689EF7
:1032B0009001699E300D789E300D1124CA01820F55
:1032C000931F892F90E0F201099529853A852F5F98
:1032D0003F4F3A872987C216D306B1F64D815E81EA
:1032E0006F817885840E951EA61EB71ED101139698
:1032F0008D919C911497E989FA898E1B9F0B880EFA
:10330000991EA11CB11C29813A812F5F3F4F3A833E
:10331000298315968D919C91169728173907C0F02F
:103320008BC11A8219827301FF2400E011E036017B
:10333000772489899A890197A0E0B0E0AC01BD01AA
:103340004F5F5F4F6F4F7F4F4D835E836F837887F3
:1033500069897A896115710549F29A8689866B01B6
:10336000C80CD91C91CFD10112964C9112974111E2
:10337000B0C015962D913C911697E981FA81E81B12
:10338000F90BE29FA001E39F500DF29F500D112415
:103390006D857E85469FC001479F900D569F900D7D
:1033A0001124AC0160E070E04D835E836F83788709
:1033B000232B09F441C11A8619868D859E850197B4
:1033C000A0E0B0E09C01AD012F5F3F4F4F4F5F4F3A
:1033D0002B8B3C8B4D8B5E8B26013A8229824F854D
:1033E0005889588F4F8B6D857E856115710509F45D
:1033F0005CC0ED80FE805B01AE0CBF1CC988DA8822
:10340000A981BA81ED91FC91EE0DFF1D3490C1149C
:10341000D104A1F10F89188D085F1F4F30FE0DC038
:10342000E0910203F09103030190F081E02DA201ED
:10343000B4018F89988D09950CC0E0910203F09139
:1034400003030190F081E02DA301B4018F89988DD1
:10345000099536942F89388D2F5F3F4F388F2F8BEA
:1034600031E0C31AD1084F89588D4017510721F018
:10347000C114D10499F602C0188F0F8B5FEFE51AC3
:10348000F50AEA14FB0409F0BBCF6D817E818F81C0
:1034900098852B893C894D895E89620F731F841F33
:1034A000951F6D837E838F8398873FEF831A930ADE
:1034B00049855A854F5F5F4F5A874987A981BA81ED
:1034C00015968D919C9116974817590708F487CF48
:1034D000B3C0413009F0B0C0F10145815681698126
:1034E0007A81681B790B249FC001259F900D349F22
:1034F000900D1124689F9001699F300D789F300DC9
:103500001124C901A0E0B0E089839A83AB83BC8316
:10351000452B09F491C01E821D82A988BA88AF8507
:10352000B889AA0EBB1E7724E12CFF24F394260150
:10353000552489899A890197A0E0B0E09C01AD01EA
:103540002F5F3F4F4F4F5F4F29873A874B875C87ED
:103550004F8558895E874D8769897A89672B09F479
:1035600048C009811A81CD80DE80C80CD91CD101E8
:10357000ED91FC91E00FF11F849190E09701281BE1
:10358000390B629EA001639E500D729E500D112456
:10359000489E9001499E300D589E300D1124CA015D
:1035A000820F931FE0910203F09103030190F081D9
:1035B000E02D492F50E0B6018D859E850995ED855A
:1035C000FE853196FE87ED870F5F1F4FAE16BF0653
:1035D00071F629813A814B815C8169857A858B8579
:1035E0009C85260F371F481F591F29833A834B8319
:1035F0005C83D10113968D919C911497E989FA8986
:103600008E1B9F0B29813A814B815C81280F391FCA
:10361000411D511D29833A834B835C834D815E811B
:103620004F5F5F4F5E834D8315968D919C911697EA
:103630004817590708F48CCF68960FB6F894DEBF88
:103640000FBECDBFDF91CF911F910F91FF90EF90F3
:10365000DF90CF90BF90AF909F908F907F906F90B2
:103660005F904F903F902F900895EF92FF920F93AD
:103670001F93E0900203F090030391E2E90EF11C26
:103680000E94D3171F910F91FF90EF9008958F9292
:103690009F92AF92BF92CF92DF92EF92FF920F93E1
:1036A0001F93CF93DF93882E992E7B01EA01C82EBA
:1036B000D92E4AC0282F30E0E0910203F091030395
:1036C00040A551A52417350708F43EC062A573A58F
:1036D00062177307C8F18A3019F4C280D38034C0EE
:1036E000A4A5B5A5109731F0241B350BA20FB31F6D
:1036F000AC9001C0A4A0B12CA6014A0D5B1D228193
:10370000338121503109241735075CF497A526A190
:1037100037A1290F311D97FD3A95E20EF31EC82CF3
:10372000D92C02A913A920A931A9A701B6010E9489
:10373000351BE0910203F091030386A5A80EB11C8E
:1037400087FDBA94CA0CDB1C89918111B3CFDF913C
:10375000CF911F910F91FF90EF90DF90CF90BF908E
:10376000AF909F908F900895FF920F931F93CF93E8
:10377000DF93EC016CC02AE0F21209C0E091020371
:10378000F091030382819381928B818B60C0E091E1
:103790000203F091030384A595A5009751F0AF2D86
:1037A000B0E020A531A5A21BB30BA80FB91F8C91C7
:1037B00001C084A1682F70E086A59B01280F311DF0
:1037C00087FD3A95C90121893289820F931F928B17
:1037D000818B418D528D860F971F481759078CF4A6
:1037E00085899689928B818B27A586A197A1820FC7
:1037F000911D27FD9A9523893489820F931F948BFD
:10380000838B238D348D6389748986A197A1860F5C
:10381000971F2817390764F485899689928B818BC5
:103820006789708D748B638B078D10A10E94901631
:10383000E0910203F0910303078D10A1258D368DD1
:1038400043895489618972898F2D0E94351BF990B3
:10385000F11091CFDF91CF911F910F91FF900895BB
:10386000843088F4209102033091030390E0FC013E
:10387000EE0FFF1F8E0F9F1FF901E80FF91F70AFAA
:1038800067AB83E081AF08958430A0F440910203D8
:103890005091030390E0DC01AA0FBB1FA80FB91FD2
:1038A000A40FB51FD9962C91D99720FF03C0FD0115
:1038B000226021AF08950E946F1C0C94571D0E9436
:1038C000501D58F00E94491D40F029F45F3F29F037
:1038D0000C94401D51110C948B1D0C94461D0E949C
:1038E000681D68F39923B1F3552391F3951B550B8C
:1038F000BB27AA2762177307840738F09F5F5F4FC3
:10390000220F331F441FAA1FA9F335D00E2E3AF001
:10391000E0E832D091505040E695001CCAF72BD019
:10392000FE2F29D0660F771F881FBB1F261737076A
:103930004807AB07B0E809F0BB0B802DBF01FF279C
:1039400093585F4F3AF09E3F510578F00C94401D1C
:103950000C948B1D5F3FE4F3983ED4F386957795E6
:103960006795B795F7959F5FC9F7880F911D969555
:10397000879597F90895E1E0660F771F881FBB1FB1
:10398000621773078407BA0720F0621B730B840B5E
:10399000BA0BEE1F88F7E09508950E94D41C689436
:1039A000B1110C948B1D08950E94701D88F09F57D3
:1039B00098F0B92F9927B751B0F0E1F0660F771F53
:1039C000881F991F1AF0BA95C9F714C0B13091F049
:1039D0000E948A1DB1E008950C948A1D672F782FEC
:1039E0008827B85F39F0B93FCCF38695779567950E
:1039F000B395D9F73EF490958095709561957F4F7A
:103A00008F4F9F4F0895E89409C097FB3EF490951F
:103A10008095709561957F4F8F4F9F4F9923A9F0A7
:103A2000F92F96E9BB279395F69587957795679536
:103A3000B795F111F8CFFAF4BB0F11F460FF1BC07A
:103A40006F5F7F4F8F4F9F4F16C0882311F096E90D
:103A500011C0772321F09EE8872F762F05C06623BB
:103A600071F096E8862F70E060E02AF09A95660F74
:103A7000771F881FDAF7880F9695879597F908952D
:103A800097F99F6780E870E060E008959FEF80EC11
:103A9000089500240A9416161706180609060895B4
:103AA00000240A9412161306140605060895092E1A
:103AB0000394000C11F4882352F0BB0F40F4BF2B89
:103AC00011F460FF04C06F5F7F4F8F4F9F4F0895C9
:103AD00057FD9058440F551F59F05F3F71F04795BF
:103AE000880F97FB991F61F09F3F79F087950895A4
:103AF000121613061406551FF2CF4695F1DF08C0C3
:103B0000161617061806991FF1CF869571056105DF
:103B100008940895E894BB2766277727CB0197F987
:103B200008950E94A41D0C94571D0E94491D38F051
:103B30000E94501D20F0952311F00C94401D0C9410
:103B4000461D11240C948B1D0E94681D70F3959FD7
:103B5000C1F3950F50E0551F629FF001729FBB2784
:103B6000F00DB11D639FAA27F00DB11DAA1F649F20
:103B70006627B00DA11D661F829F2227B00DA11DD3
:103B8000621F739FB00DA11D621F839FA00D611D59
:103B9000221F749F3327A00D611D231F849F600D7A
:103BA000211D822F762F6A2F11249F5750409AF0A3
:103BB000F1F088234AF0EE0FFF1FBB1F661F771F2F
:103BC000881F91505040A9F79E3F510580F00C94FA
:103BD000401D0C948B1D5F3FE4F3983ED4F3869513
:103BE00077956795B795F795E7959F5FC1F7FE2B9A
:103BF000880F911D9695879597F90895A1E21A2E41
:103C0000AA1BBB1BFD010DC0AA1FBB1FEE1FFF1F80
:103C1000A217B307E407F50720F0A21BB30BE40BD0
:103C2000F50B661F771F881F991F1A9469F7609517
:103C30007095809590959B01AC01BD01CF010895D1
:103C4000052E97FB1EF400940E94371E57FD07D0E7
:103C50000E94FE1D07FC03D04EF40C94371E5095B5
:103C60004095309521953F4F4F4F5F4F0895909568
:103C70008095709561957F4F8F4F9F4F0895EE0F00
:103C8000FF1F0590F491E02D0994A29FB001B39F0E
:103C9000C001A39F700D811D1124911DB29F700D55
:103CA000811D1124911D08950E94451EA59F900D10
:103CB000B49F900DA49F800D911D11240895B7FF0E
:103CC0000C94541E0E94541E821B930B0895AEE068
:103CD000B0E0EDE6FEE10C9428210D891E8986E016
:103CE0008C831A8309838FEF9FE79E838D83AE01B8
:103CF000475E5F4F6F89788DCE0101960E94891EC5
:103D0000EF81F885E00FF11F10822E96E4E00C940D
:103D10004421ABE0B0E0EFE8FEE10C941A216C0125
:103D20007B018A01FC0117821682838181FFCCC14D
:103D3000CE0101963C01F6019381F70193FD859137
:103D400093FF81917F01882309F4BAC1853239F448
:103D500093FD859193FF81917F01853229F4B6010E
:103D600090E00E948020E7CF912C212C312CFFE1A4
:103D7000F315D8F08B3279F038F4803279F0833251
:103D8000A1F4232D20611DC08D3261F0803369F4D0
:103D9000232D216016C0832D8260382EE32DE46030
:103DA0003E2E2AC0F32DF8601DC037FC2DC020ED3B
:103DB000280F2A3040F08E32B9F436FC81C1232D11
:103DC0002064322E19C036FE06C08AE0989E200D6F
:103DD0001124922E11C0EAE02E9E200D1124222ED5
:103DE000F32DF0623F2E08C08C3621F4832D8068BD
:103DF000382E02C0883641F4F70193FD859193FF78
:103E000081917F018111B3CF982F9F7D955493307D
:103E100028F40C5F1F4F9FE399830DC0833631F068
:103E2000833771F0833509F059C021C0F8018081D2
:103E300089830E5F1F4F88248394912C530113C0F4
:103E40002801F2E04F0E511CF801A080B18036FE2F
:103E500003C0692D70E002C06FEF7FEFC5010E94C3
:103E600075204C018201F32DFF773F2E16C02801EB
:103E700022E0420E511CF801A080B18036FE03C042
:103E8000692D70E002C06FEF7FEFC5010E946A20CC
:103E90004C01F32DF0683F2E820133FC1BC0822DB4
:103EA00090E088169906B0F4B60180E290E00E9496
:103EB00080202A94F4CFF50137FC859137FE81915B
:103EC0005F01B60190E00E94802021102A9421E039
:103ED000821A91088114910471F7E8C0843611F0B8
:103EE000893641F5F80137FE07C060817181828112
:103EF00093810C5F1F4F08C060817181072E000CF9
:103F0000880B990B0E5F1F4FF32DFF763F2E97FF07
:103F100009C090958095709561957F4F8F4F9F4F09
:103F2000F0683F2E2AE030E0A3010E94BC20882EDA
:103F3000861845C0853731F4232D2F7EB22E2AE016
:103F400030E025C0932D997FB92E8F36C1F018F43B
:103F5000883579F0B5C0803719F0883721F0B0C0C6
:103F6000E92FE061BE2EB4FE0DC0FB2DF460BF2E24
:103F700009C034FE0AC0292F2660B22E06C028E0F0
:103F800030E005C020E130E002C020E132E0F8017D
:103F9000B7FE07C060817181828193810C5F1F4FE2
:103FA00006C06081718180E090E00E5F1F4FA30129
:103FB0000E94BC20882E8618FB2DFF773F2E36FEF0
:103FC0000DC0232D2E7FA22E891458F434FE0BC071
:103FD00032FC09C0832D8E7EA82E05C0B82CA32CE0
:103FE00003C0B82C01C0B92CA4FE0FC0FE01E80D1F
:103FF000F11D8081803321F49A2D997EA92E09C06C
:10400000A2FE06C0B394B39404C08A2D867809F04A
:10401000B394A3FC11C0A0FE06C0B21488F4280C0F
:10402000922C9B180EC0B21460F4B60180E290E0AE
:104030000E948020B394F7CFB21418F42B1802C05A
:10404000982C212CA4FE10C0B60180E390E00E94C1
:104050008020A2FE17C0A1FC03C088E790E002C048
:1040600088E590E0B6010CC08A2D867859F0A1FE53
:1040700002C08BE201C080E2A7FC8DE2B60190E0B5
:104080000E948020891438F4B60180E390E00E94F9
:1040900080209A94F7CF8A94F301E80DF11D808176
:1040A000B60190E00E9480208110F5CF222009F413
:1040B00042CEB60180E290E00E9480202A94F6CFA2
:1040C000F6018681978102C08FEF9FEF2B96E2E188
:1040D0000C943621FC010590615070400110D8F716
:1040E000809590958E0F9F1F0895FC016150704040
:1040F00001900110D8F7809590958E0F9F1F08951D
:104100000F931F93CF93DF93FB01238121FD03C006
:104110008FEF9FEF2CC022FF16C04681578124816C
:1041200035814217530744F4A081B1819D012F5F6F
:104130003F4F318320838C93268137812F5F3F4F00
:104140003783268314C08B01EC01FB010084F185C9
:10415000E02D0995892BE1F6D80116968D919C9159
:104160001797019617969C938E931697CE01DF9121
:10417000CF911F910F910895FA01AA27283051F18C
:10418000203181F1E8946F936E7F6E5F7F4F8F4F88
:104190009F4FAF4FB1E03ED0B4E03CD0670F781FE7
:1041A000891F9A1FA11D680F791F8A1F911DA11DCC
:1041B0006A0F711D811D911DA11D20D009F4689405
:1041C0003F912AE0269F11243019305D3193DEF6AD
:1041D000CF010895462F4770405D4193B3E00FD063
:1041E000C9F7F6CF462F4F70405D4A3318F0495D4E
:1041F00031FD4052419302D0A9F7EACFB4E0A69531
:104200009795879577956795BA95C9F70097610552
:10421000710508959B01AC010A2E069457954795A8
:1042200037952795BA95C9F7620F731F841F951F9D
:10423000A01D08952F923F924F925F926F927F92AE
:104240008F929F92AF92BF92CF92DF92EF92FF92A6
:104250000F931F93CF93DF93CDB7DEB7CA1BDB0B52
:104260000FB6F894DEBF0FBECDBF09942A883988F7
:1042700048885F846E847D848C849B84AA84B984FE
:10428000C884DF80EE80FD800C811B81AA81B9810A
:10429000CE0FD11D0FB6F894DEBF0FBECDBFED011E
:0642A0000895F894FFCF21
:1042A60000000002000000007F1200000000400134
:1042B600F0004F4B202D20436F6E6669726D0041F2
:1042C600202D20496E6372656173650042202D20A2
:1042D600446563726561736500455343202D205222
:1042E6006573657400414C45530054454D503A2062
:1042F60031382D32320054494D453A203132202D85
:10430600203238004C41474552530054454D503AEF
:1043160020382D31320054494D453A203231202D76
:104326002032380053544F5554532F504F52544552
:1043360052530054494D453A203134202D20323114
:10434600004D454741464F524345004645524D456F
:104356004E5441544F52004348414D424552004D40
:1043660041444520464F52204F4D45002D4645209D
:10437600326E642E20796561720044455349474E7A
:10438600454420464F52205553450020574954482E
:10439600204D49534B4F20320054656D703A20250D
:1043A6006400446179733A20256400486F7572731E
:1043B6003A202564004D696E733A202564005365E2
:1043C600633A202564005441524745542054454DD4
:1043D60050455241545552453A20256400464552AF
:1043E6004D454E544154494F4E2054454D5045522B
:1043F60041545552453A20256400446F6E27742077
:10440600776F727279200061626F757420796F75AB
:1044160072206265657221004D49534B4F206973C6
:104426002074616B696E67200063617265206F6638
:104436002069742100437261636B206F70656E00A2
:104446006120636F6C64206F6E65007768696C65C8
:104456002077616974696E672100444F204E4F547E
:10446600204F50454E20544845204348414D424533
:1044760052204946204E4F54204E45434553534102
:10448600525921004E010010001A0020007F000042
:0E44960000CE140008000C0020007F00000083
:00000001FF
